{
  "_format": "hh-sol-artifact-1",
  "contractName": "Backer",
  "sourceName": "contracts/Backer.sol",
  "abi": [
    {
      "inputs": [
        {
          "internalType": "uint256",
          "name": "_period",
          "type": "uint256"
        }
      ],
      "stateMutability": "nonpayable",
      "type": "constructor"
    },
    {
      "anonymous": false,
      "inputs": [
        {
          "indexed": false,
          "internalType": "uint256",
          "name": "period",
          "type": "uint256"
        },
        {
          "indexed": true,
          "internalType": "address",
          "name": "supporter",
          "type": "address"
        },
        {
          "indexed": false,
          "internalType": "uint256",
          "name": "amount",
          "type": "uint256"
        }
      ],
      "name": "Deposit",
      "type": "event"
    },
    {
      "anonymous": false,
      "inputs": [
        {
          "indexed": false,
          "internalType": "uint256",
          "name": "period",
          "type": "uint256"
        },
        {
          "indexed": true,
          "internalType": "address",
          "name": "supporter",
          "type": "address"
        },
        {
          "indexed": true,
          "internalType": "address",
          "name": "creator",
          "type": "address"
        },
        {
          "indexed": false,
          "internalType": "uint256",
          "name": "subscriptionPlanId",
          "type": "uint256"
        },
        {
          "indexed": false,
          "internalType": "uint256",
          "name": "numOfPeriods",
          "type": "uint256"
        }
      ],
      "name": "Subscribe",
      "type": "event"
    },
    {
      "anonymous": false,
      "inputs": [
        {
          "indexed": false,
          "internalType": "uint256",
          "name": "period",
          "type": "uint256"
        },
        {
          "indexed": true,
          "internalType": "address",
          "name": "supporter",
          "type": "address"
        },
        {
          "indexed": true,
          "internalType": "address",
          "name": "creator",
          "type": "address"
        },
        {
          "indexed": false,
          "internalType": "uint256",
          "name": "subscriptionPlanId",
          "type": "uint256"
        }
      ],
      "name": "SubscribeCancelled",
      "type": "event"
    },
    {
      "anonymous": false,
      "inputs": [
        {
          "indexed": false,
          "internalType": "uint256",
          "name": "period",
          "type": "uint256"
        },
        {
          "indexed": true,
          "internalType": "address",
          "name": "recipient",
          "type": "address"
        },
        {
          "indexed": false,
          "internalType": "uint256",
          "name": "amount",
          "type": "uint256"
        }
      ],
      "name": "Withdraw",
      "type": "event"
    },
    {
      "inputs": [
        {
          "internalType": "uint256",
          "name": "amountPerPeriod",
          "type": "uint256"
        },
        {
          "internalType": "uint256",
          "name": "numOfPeriods",
          "type": "uint256"
        }
      ],
      "name": "canSubscribe",
      "outputs": [
        {
          "internalType": "bool",
          "name": "",
          "type": "bool"
        }
      ],
      "stateMutability": "view",
      "type": "function"
    },
    {
      "inputs": [
        {
          "internalType": "address",
          "name": "creator",
          "type": "address"
        }
      ],
      "name": "cancelSubscribe",
      "outputs": [],
      "stateMutability": "nonpayable",
      "type": "function"
    },
    {
      "inputs": [],
      "name": "claimCreatorPayment",
      "outputs": [],
      "stateMutability": "nonpayable",
      "type": "function"
    },
    {
      "inputs": [],
      "name": "currentPeriod",
      "outputs": [
        {
          "internalType": "uint256",
          "name": "",
          "type": "uint256"
        }
      ],
      "stateMutability": "view",
      "type": "function"
    },
    {
      "inputs": [],
      "name": "deposit",
      "outputs": [],
      "stateMutability": "payable",
      "type": "function"
    },
    {
      "inputs": [
        {
          "internalType": "address",
          "name": "user",
          "type": "address"
        }
      ],
      "name": "getBalance",
      "outputs": [
        {
          "internalType": "uint256",
          "name": "",
          "type": "uint256"
        }
      ],
      "stateMutability": "view",
      "type": "function"
    },
    {
      "inputs": [],
      "name": "getCreatorPayment",
      "outputs": [
        {
          "internalType": "uint256",
          "name": "",
          "type": "uint256"
        }
      ],
      "stateMutability": "view",
      "type": "function"
    },
    {
      "inputs": [
        {
          "internalType": "address",
          "name": "creator",
          "type": "address"
        }
      ],
      "name": "getCreatorSubscribers",
      "outputs": [
        {
          "components": [
            {
              "internalType": "address",
              "name": "supporter",
              "type": "address"
            },
            {
              "internalType": "uint256",
              "name": "subscriptionPlanId",
              "type": "uint256"
            },
            {
              "internalType": "uint256",
              "name": "afterLastPeriod",
              "type": "uint256"
            }
          ],
          "internalType": "struct Backer.Subscriber[]",
          "name": "",
          "type": "tuple[]"
        }
      ],
      "stateMutability": "view",
      "type": "function"
    },
    {
      "inputs": [
        {
          "internalType": "address",
          "name": "creator",
          "type": "address"
        }
      ],
      "name": "getCreatorSubscriptionPlans",
      "outputs": [
        {
          "components": [
            {
              "internalType": "uint256",
              "name": "id",
              "type": "uint256"
            },
            {
              "internalType": "string",
              "name": "name",
              "type": "string"
            },
            {
              "internalType": "address",
              "name": "creator",
              "type": "address"
            },
            {
              "internalType": "uint256",
              "name": "amountPerPeriod",
              "type": "uint256"
            }
          ],
          "internalType": "struct Backer.SubscriptionPlan[]",
          "name": "",
          "type": "tuple[]"
        }
      ],
      "stateMutability": "view",
      "type": "function"
    },
    {
      "inputs": [
        {
          "internalType": "address",
          "name": "supporter",
          "type": "address"
        }
      ],
      "name": "getSupporterSubscriptions",
      "outputs": [
        {
          "components": [
            {
              "components": [
                {
                  "internalType": "uint256",
                  "name": "id",
                  "type": "uint256"
                },
                {
                  "internalType": "string",
                  "name": "name",
                  "type": "string"
                },
                {
                  "internalType": "address",
                  "name": "creator",
                  "type": "address"
                },
                {
                  "internalType": "uint256",
                  "name": "amountPerPeriod",
                  "type": "uint256"
                }
              ],
              "internalType": "struct Backer.SubscriptionPlan",
              "name": "subscriptionPlan",
              "type": "tuple"
            },
            {
              "internalType": "uint256",
              "name": "afterLastPeriod",
              "type": "uint256"
            },
            {
              "internalType": "bool",
              "name": "initialized",
              "type": "bool"
            }
          ],
          "internalType": "struct Backer.Subscription[]",
          "name": "",
          "type": "tuple[]"
        }
      ],
      "stateMutability": "view",
      "type": "function"
    },
    {
      "inputs": [
        {
          "internalType": "uint256",
          "name": "amountPerPeriod",
          "type": "uint256"
        },
        {
          "internalType": "string",
          "name": "name",
          "type": "string"
        }
      ],
      "name": "newSubscriptionPlan",
      "outputs": [],
      "stateMutability": "nonpayable",
      "type": "function"
    },
    {
      "inputs": [
        {
          "internalType": "address",
          "name": "creator",
          "type": "address"
        },
        {
          "internalType": "uint256",
          "name": "subscriptionPlanId",
          "type": "uint256"
        },
        {
          "internalType": "uint256",
          "name": "numOfPeriods",
          "type": "uint256"
        }
      ],
      "name": "subscribe",
      "outputs": [],
      "stateMutability": "nonpayable",
      "type": "function"
    },
    {
      "inputs": [
        {
          "internalType": "uint256",
          "name": "amount",
          "type": "uint256"
        }
      ],
      "name": "withdraw",
      "outputs": [],
      "stateMutability": "nonpayable",
      "type": "function"
    }
  ],
  "bytecode": "0x60806040523480156200001157600080fd5b506040516200382138038062003821833981810160405281019062000037919062000063565b806002819055504260038190555050620000b3565b6000815190506200005d8162000099565b92915050565b6000602082840312156200007657600080fd5b600062000086848285016200004c565b91505092915050565b6000819050919050565b620000a4816200008f565b8114620000b057600080fd5b50565b61375e80620000c36000396000f3fe6080604052600436106100c25760003560e01c8063980131331161007f578063d0e30db011610059578063d0e30db014610266578063e11d48b114610270578063efac60a314610299578063f8b2cb4f146102d6576100c2565b806398013133146101fb5780639c8285b914610224578063c5b981fa1461023b576100c2565b806306040618146100c757806322d4a175146100f257806328eaf2731461011b5780632e1a7d4d14610158578063600890e014610181578063799e50e9146101be575b600080fd5b3480156100d357600080fd5b506100dc610313565b6040516100e9919061310f565b60405180910390f35b3480156100fe57600080fd5b5061011960048036038101906101149190612abb565b610335565b005b34801561012757600080fd5b50610142600480360381019061013d9190612a92565b611176565b60405161014f9190613012565b60405180910390f35b34801561016457600080fd5b5061017f600480360381019061017a9190612b0a565b611349565b005b34801561018d57600080fd5b506101a860048036038101906101a39190612b87565b6115aa565b6040516101b59190613034565b60405180910390f35b3480156101ca57600080fd5b506101e560048036038101906101e09190612a92565b611602565b6040516101f29190612fce565b60405180910390f35b34801561020757600080fd5b50610222600480360381019061021d9190612b33565b61170a565b005b34801561023057600080fd5b50610239611848565b005b34801561024757600080fd5b506102506118f8565b60405161025d919061310f565b60405180910390f35b61026e6119cc565b005b34801561027c57600080fd5b5061029760048036038101906102929190612a92565b611a7b565b005b3480156102a557600080fd5b506102c060048036038101906102bb9190612a92565b61266f565b6040516102cd9190612ff0565b60405180910390f35b3480156102e257600080fd5b506102fd60048036038101906102f89190612a92565b612809565b60405161030a919061310f565b60405180910390f35b60006002546003544261032691906133a4565b6103309190613319565b905090565b61033d612852565b600080600090505b600460008773ffffffffffffffffffffffffffffffffffffffff1673ffffffffffffffffffffffffffffffffffffffff168152602001908152602001600020805490508110156105c95784600460008873ffffffffffffffffffffffffffffffffffffffff1673ffffffffffffffffffffffffffffffffffffffff1681526020019081526020016000208281548110610407577f4e487b7100000000000000000000000000000000000000000000000000000000600052603260045260246000fd5b90600052602060002090600402016000015414156105b657600460008773ffffffffffffffffffffffffffffffffffffffff1673ffffffffffffffffffffffffffffffffffffffff1681526020019081526020016000208181548110610496577f4e487b7100000000000000000000000000000000000000000000000000000000600052603260045260246000fd5b9060005260206000209060040201604051806080016040529081600082015481526020016001820180546104c990613462565b80601f01602080910402602001604051908101604052809291908181526020018280546104f590613462565b80156105425780601f1061051757610100808354040283529160200191610542565b820191906000526020600020905b81548152906001019060200180831161052557829003601f168201915b505050505081526020016002820160009054906101000a900473ffffffffffffffffffffffffffffffffffffffff1673ffffffffffffffffffffffffffffffffffffffff1673ffffffffffffffffffffffffffffffffffffffff1681526020016003820154815250509250600191506105c9565b80806105c1906134c5565b915050610345565b81610609576040517f08c379a00000000000000000000000000000000000000000000000000000000081526004016106009061304f565b60405180910390fd5b6106178360600151856115aa565b610656576040517f08c379a000000000000000000000000000000000000000000000000000000000815260040161064d906130ef565b60405180910390fd5b600560003373ffffffffffffffffffffffffffffffffffffffff1673ffffffffffffffffffffffffffffffffffffffff16815260200190815260200160002060008773ffffffffffffffffffffffffffffffffffffffff1673ffffffffffffffffffffffffffffffffffffffff16815260200190815260200160002060050160009054906101000a900460ff16158061077557506106f2610313565b600560003373ffffffffffffffffffffffffffffffffffffffff1673ffffffffffffffffffffffffffffffffffffffff16815260200190815260200160002060008873ffffffffffffffffffffffffffffffffffffffff1673ffffffffffffffffffffffffffffffffffffffff1681526020019081526020016000206004015411155b6107b4576040517f08c379a00000000000000000000000000000000000000000000000000000000081526004016107ab9061308f565b60405180910390fd5b60006107be610313565b90505b846107ca610313565b6107d491906132c3565b811015610859578360600151600860008973ffffffffffffffffffffffffffffffffffffffff1673ffffffffffffffffffffffffffffffffffffffff1681526020019081526020016000206000838152602001908152602001600020600082825461083f91906132c3565b925050819055508080610851906134c5565b9150506107c1565b506000604051806060016040528085815260200186610876610313565b61088091906132c3565b815260200160011515815250905080600560003373ffffffffffffffffffffffffffffffffffffffff1673ffffffffffffffffffffffffffffffffffffffff16815260200190815260200160002060008973ffffffffffffffffffffffffffffffffffffffff1673ffffffffffffffffffffffffffffffffffffffff16815260200190815260200160002060008201518160000160008201518160000155602082015181600101908051906020019061093a929190612890565b5060408201518160020160006101000a81548173ffffffffffffffffffffffffffffffffffffffff021916908373ffffffffffffffffffffffffffffffffffffffff1602179055506060820151816003015550506020820151816004015560408201518160050160006101000a81548160ff0219169083151502179055509050506000600660003373ffffffffffffffffffffffffffffffffffffffff1673ffffffffffffffffffffffffffffffffffffffff168152602001908152602001600020805490509050600092505b80831015610c3c578773ffffffffffffffffffffffffffffffffffffffff16600660003373ffffffffffffffffffffffffffffffffffffffff1673ffffffffffffffffffffffffffffffffffffffff1681526020019081526020016000208481548110610a9d577f4e487b7100000000000000000000000000000000000000000000000000000000600052603260045260246000fd5b906000526020600020906006020160000160020160009054906101000a900473ffffffffffffffffffffffffffffffffffffffff1673ffffffffffffffffffffffffffffffffffffffff161415610c295781600660003373ffffffffffffffffffffffffffffffffffffffff1673ffffffffffffffffffffffffffffffffffffffff1681526020019081526020016000208481548110610b66577f4e487b7100000000000000000000000000000000000000000000000000000000600052603260045260246000fd5b9060005260206000209060060201600082015181600001600082015181600001556020820151816001019080519060200190610ba3929190612890565b5060408201518160020160006101000a81548173ffffffffffffffffffffffffffffffffffffffff021916908373ffffffffffffffffffffffffffffffffffffffff1602179055506060820151816003015550506020820151816004015560408201518160050160006101000a81548160ff021916908315150217905550905050610c3c565b8280610c34906134c5565b935050610a07565b80831415610d5d57600660003373ffffffffffffffffffffffffffffffffffffffff1673ffffffffffffffffffffffffffffffffffffffff168152602001908152602001600020829080600181540180825580915050600190039060005260206000209060060201600090919091909150600082015181600001600082015181600001556020820151816001019080519060200190610cdc929190612890565b5060408201518160020160006101000a81548173ffffffffffffffffffffffffffffffffffffffff021916908373ffffffffffffffffffffffffffffffffffffffff1602179055506060820151816003015550506020820151816004015560408201518160050160006101000a81548160ff02191690831515021790555050505b600060405180606001604052803373ffffffffffffffffffffffffffffffffffffffff16815260200187600001518152602001846020015181525090506000600760008b73ffffffffffffffffffffffffffffffffffffffff1673ffffffffffffffffffffffffffffffffffffffff168152602001908152602001600020805490509050600094505b80851015610fc6573373ffffffffffffffffffffffffffffffffffffffff16600760008c73ffffffffffffffffffffffffffffffffffffffff1673ffffffffffffffffffffffffffffffffffffffff1681526020019081526020016000208681548110610e7c577f4e487b7100000000000000000000000000000000000000000000000000000000600052603260045260246000fd5b906000526020600020906003020160000160009054906101000a900473ffffffffffffffffffffffffffffffffffffffff1673ffffffffffffffffffffffffffffffffffffffff161415610fb35781600760008c73ffffffffffffffffffffffffffffffffffffffff1673ffffffffffffffffffffffffffffffffffffffff1681526020019081526020016000208681548110610f42577f4e487b7100000000000000000000000000000000000000000000000000000000600052603260045260246000fd5b906000526020600020906003020160008201518160000160006101000a81548173ffffffffffffffffffffffffffffffffffffffff021916908373ffffffffffffffffffffffffffffffffffffffff1602179055506020820151816001015560408201518160020155905050610fc6565b8480610fbe906134c5565b955050610de6565b8085141561109557600760008b73ffffffffffffffffffffffffffffffffffffffff1673ffffffffffffffffffffffffffffffffffffffff16815260200190815260200160002082908060018154018082558091505060019003906000526020600020906003020160009091909190915060008201518160000160006101000a81548173ffffffffffffffffffffffffffffffffffffffff021916908373ffffffffffffffffffffffffffffffffffffffff160217905550602082015181600101556040820151816002015550505b8787606001516110a5919061334a565b600a60003373ffffffffffffffffffffffffffffffffffffffff1673ffffffffffffffffffffffffffffffffffffffff16815260200190815260200160002060008282546110f391906133a4565b925050819055508973ffffffffffffffffffffffffffffffffffffffff163373ffffffffffffffffffffffffffffffffffffffff167f034f7638a4bf87941eab61937397b06c1308e493214ac51a8c34fb601b625f39611151610313565b8c8c60405161116293929190613153565b60405180910390a350505050505050505050565b6060600660008373ffffffffffffffffffffffffffffffffffffffff1673ffffffffffffffffffffffffffffffffffffffff168152602001908152602001600020805480602002602001604051908101604052809291908181526020016000905b8282101561133e5783829060005260206000209060060201604051806060016040529081600082016040518060800160405290816000820154815260200160018201805461122490613462565b80601f016020809104026020016040519081016040528092919081815260200182805461125090613462565b801561129d5780601f106112725761010080835404028352916020019161129d565b820191906000526020600020905b81548152906001019060200180831161128057829003601f168201915b505050505081526020016002820160009054906101000a900473ffffffffffffffffffffffffffffffffffffffff1673ffffffffffffffffffffffffffffffffffffffff1673ffffffffffffffffffffffffffffffffffffffff1681526020016003820154815250508152602001600482015481526020016005820160009054906101000a900460ff161515151581525050815260200190600101906111d7565b505050509050919050565b60008054906101000a900460ff1615611397576040517f08c379a000000000000000000000000000000000000000000000000000000000815260040161138e906130af565b60405180910390fd5b60016000806101000a81548160ff02191690831515021790555080600a60003373ffffffffffffffffffffffffffffffffffffffff1673ffffffffffffffffffffffffffffffffffffffff168152602001908152602001600020541015611433576040517f08c379a000000000000000000000000000000000000000000000000000000000815260040161142a906130cf565b60405180910390fd5b60003373ffffffffffffffffffffffffffffffffffffffff168260405161145990612fb9565b60006040518083038185875af1925050503d8060008114611496576040519150601f19603f3d011682016040523d82523d6000602084013e61149b565b606091505b50509050806114df576040517f08c379a00000000000000000000000000000000000000000000000000000000081526004016114d69061306f565b60405180910390fd5b81600a60003373ffffffffffffffffffffffffffffffffffffffff1673ffffffffffffffffffffffffffffffffffffffff168152602001908152602001600020600082825461152e91906133a4565b925050819055503373ffffffffffffffffffffffffffffffffffffffff167f9da6493a92039daf47d1f2d7a782299c5994c6323eb1e972f69c432089ec52bf611575610313565b8460405161158492919061312a565b60405180910390a25060008060006101000a81548160ff02191690831515021790555050565b600081836115b8919061334a565b600a60003373ffffffffffffffffffffffffffffffffffffffff1673ffffffffffffffffffffffffffffffffffffffff168152602001908152602001600020541015905092915050565b6060600760008373ffffffffffffffffffffffffffffffffffffffff1673ffffffffffffffffffffffffffffffffffffffff168152602001908152602001600020805480602002602001604051908101604052809291908181526020016000905b828210156116ff57838290600052602060002090600302016040518060600160405290816000820160009054906101000a900473ffffffffffffffffffffffffffffffffffffffff1673ffffffffffffffffffffffffffffffffffffffff1673ffffffffffffffffffffffffffffffffffffffff1681526020016001820154815260200160028201548152505081526020019060010190611663565b505050509050919050565b600180600082825461171c91906132c3565b925050819055506000604051806080016040528060015481526020018381526020013373ffffffffffffffffffffffffffffffffffffffff168152602001848152509050600460003373ffffffffffffffffffffffffffffffffffffffff1673ffffffffffffffffffffffffffffffffffffffff1681526020019081526020016000208190806001815401808255809150506001900390600052602060002090600402016000909190919091506000820151816000015560208201518160010190805190602001906117ef929190612890565b5060408201518160020160006101000a81548173ffffffffffffffffffffffffffffffffffffffff021916908373ffffffffffffffffffffffffffffffffffffffff160217905550606082015181600301555050505050565b60006118526118f8565b905061185c610313565b600960003373ffffffffffffffffffffffffffffffffffffffff1673ffffffffffffffffffffffffffffffffffffffff1681526020019081526020016000208190555080600a60003373ffffffffffffffffffffffffffffffffffffffff1673ffffffffffffffffffffffffffffffffffffffff16815260200190815260200160002060008282546118ee91906132c3565b9250508190555050565b600080600090506000600960003373ffffffffffffffffffffffffffffffffffffffff1673ffffffffffffffffffffffffffffffffffffffff1681526020019081526020016000205490505b61194c610313565b8110156119c457600860003373ffffffffffffffffffffffffffffffffffffffff1673ffffffffffffffffffffffffffffffffffffffff168152602001908152602001600020600082815260200190815260200160002054826119af91906132c3565b915080806119bc906134c5565b915050611944565b508091505090565b34600a60003373ffffffffffffffffffffffffffffffffffffffff1673ffffffffffffffffffffffffffffffffffffffff1681526020019081526020016000206000828254611a1b91906132c3565b925050819055503373ffffffffffffffffffffffffffffffffffffffff167feaa18152488ce5959073c9c79c88ca90b3d96c00de1f118cfaad664c3dab06b9611a62610313565b34604051611a7192919061312a565b60405180910390a2565b6000600560003373ffffffffffffffffffffffffffffffffffffffff1673ffffffffffffffffffffffffffffffffffffffff16815260200190815260200160002060008373ffffffffffffffffffffffffffffffffffffffff1673ffffffffffffffffffffffffffffffffffffffff1681526020019081526020016000206040518060600160405290816000820160405180608001604052908160008201548152602001600182018054611b2e90613462565b80601f0160208091040260200160405190810160405280929190818152602001828054611b5a90613462565b8015611ba75780601f10611b7c57610100808354040283529160200191611ba7565b820191906000526020600020905b815481529060010190602001808311611b8a57829003601f168201915b505050505081526020016002820160009054906101000a900473ffffffffffffffffffffffffffffffffffffffff1673ffffffffffffffffffffffffffffffffffffffff1673ffffffffffffffffffffffffffffffffffffffff1681526020016003820154815250508152602001600482015481526020016005820160009054906101000a900460ff16151515158152505090508060400151611c4957600080fd5b6001611c53610313565b8260200151611c6291906133a4565b611c6c91906133a4565b816000015160600151611c7f919061334a565b600a60003373ffffffffffffffffffffffffffffffffffffffff1673ffffffffffffffffffffffffffffffffffffffff1681526020019081526020016000206000828254611ccd91906132c3565b9250508190555060006001611ce0610313565b611cea91906132c3565b90505b8160200151811015611d7b57816000015160600151600860008573ffffffffffffffffffffffffffffffffffffffff1673ffffffffffffffffffffffffffffffffffffffff16815260200190815260200160002060008381526020019081526020016000206000828254611d6191906133a4565b925050819055508080611d73906134c5565b915050611ced565b506000600660003373ffffffffffffffffffffffffffffffffffffffff1673ffffffffffffffffffffffffffffffffffffffff16815260200190815260200160002080549050905060005b8181101561216e57826000015160000151600660003373ffffffffffffffffffffffffffffffffffffffff1673ffffffffffffffffffffffffffffffffffffffff1681526020019081526020016000208281548110611e4e577f4e487b7100000000000000000000000000000000000000000000000000000000600052603260045260246000fd5b906000526020600020906006020160000160000154141561215b57600660003373ffffffffffffffffffffffffffffffffffffffff1673ffffffffffffffffffffffffffffffffffffffff168152602001908152602001600020600183611eb591906133a4565b81548110611eec577f4e487b7100000000000000000000000000000000000000000000000000000000600052603260045260246000fd5b9060005260206000209060060201600660003373ffffffffffffffffffffffffffffffffffffffff1673ffffffffffffffffffffffffffffffffffffffff1681526020019081526020016000208281548110611f71577f4e487b7100000000000000000000000000000000000000000000000000000000600052603260045260246000fd5b90600052602060002090600602016000820181600001600082015481600001556001820181600101908054611fa590613462565b611fb0929190612916565b506002820160009054906101000a900473ffffffffffffffffffffffffffffffffffffffff168160020160006101000a81548173ffffffffffffffffffffffffffffffffffffffff021916908373ffffffffffffffffffffffffffffffffffffffff160217905550600382015481600301555050600482015481600401556005820160009054906101000a900460ff168160050160006101000a81548160ff021916908315150217905550905050600660003373ffffffffffffffffffffffffffffffffffffffff1673ffffffffffffffffffffffffffffffffffffffff1681526020019081526020016000208054806120d3577f4e487b7100000000000000000000000000000000000000000000000000000000600052603160045260246000fd5b6001900381819060005260206000209060060201600080820160008082016000905560018201600061210591906129a3565b6002820160006101000a81549073ffffffffffffffffffffffffffffffffffffffff02191690556003820160009055505060048201600090556005820160006101000a81549060ff02191690555050905561216e565b8080612166906134c5565b915050611dc6565b506000600760008573ffffffffffffffffffffffffffffffffffffffff1673ffffffffffffffffffffffffffffffffffffffff16815260200190815260200160002080549050905060005b8181101561250e573373ffffffffffffffffffffffffffffffffffffffff16600760008773ffffffffffffffffffffffffffffffffffffffff1673ffffffffffffffffffffffffffffffffffffffff168152602001908152602001600020828154811061224f577f4e487b7100000000000000000000000000000000000000000000000000000000600052603260045260246000fd5b906000526020600020906003020160000160009054906101000a900473ffffffffffffffffffffffffffffffffffffffff1673ffffffffffffffffffffffffffffffffffffffff1614156124fb57600760008673ffffffffffffffffffffffffffffffffffffffff1673ffffffffffffffffffffffffffffffffffffffff1681526020019081526020016000206001836122e991906133a4565b81548110612320577f4e487b7100000000000000000000000000000000000000000000000000000000600052603260045260246000fd5b9060005260206000209060030201600760008773ffffffffffffffffffffffffffffffffffffffff1673ffffffffffffffffffffffffffffffffffffffff16815260200190815260200160002082815481106123a5577f4e487b7100000000000000000000000000000000000000000000000000000000600052603260045260246000fd5b90600052602060002090600302016000820160009054906101000a900473ffffffffffffffffffffffffffffffffffffffff168160000160006101000a81548173ffffffffffffffffffffffffffffffffffffffff021916908373ffffffffffffffffffffffffffffffffffffffff1602179055506001820154816001015560028201548160020155905050600760008673ffffffffffffffffffffffffffffffffffffffff1673ffffffffffffffffffffffffffffffffffffffff1681526020019081526020016000208054806124a6577f4e487b7100000000000000000000000000000000000000000000000000000000600052603160045260246000fd5b6001900381819060005260206000209060030201600080820160006101000a81549073ffffffffffffffffffffffffffffffffffffffff0219169055600182016000905560028201600090555050905561250e565b8080612506906134c5565b9150506121b9565b50600560003373ffffffffffffffffffffffffffffffffffffffff1673ffffffffffffffffffffffffffffffffffffffff16815260200190815260200160002060008573ffffffffffffffffffffffffffffffffffffffff1673ffffffffffffffffffffffffffffffffffffffff16815260200190815260200160002060008082016000808201600090556001820160006125a991906129a3565b6002820160006101000a81549073ffffffffffffffffffffffffffffffffffffffff02191690556003820160009055505060048201600090556005820160006101000a81549060ff021916905550508373ffffffffffffffffffffffffffffffffffffffff163373ffffffffffffffffffffffffffffffffffffffff167f58daab947c81d281f81bd88ec10a9f45fde59788c098989597fa09627543d31a60025486600001516000015160405161266192919061312a565b60405180910390a350505050565b6060600460008373ffffffffffffffffffffffffffffffffffffffff1673ffffffffffffffffffffffffffffffffffffffff168152602001908152602001600020805480602002602001604051908101604052809291908181526020016000905b828210156127fe57838290600052602060002090600402016040518060800160405290816000820154815260200160018201805461270d90613462565b80601f016020809104026020016040519081016040528092919081815260200182805461273990613462565b80156127865780601f1061275b57610100808354040283529160200191612786565b820191906000526020600020905b81548152906001019060200180831161276957829003601f168201915b505050505081526020016002820160009054906101000a900473ffffffffffffffffffffffffffffffffffffffff1673ffffffffffffffffffffffffffffffffffffffff1673ffffffffffffffffffffffffffffffffffffffff168152602001600382015481525050815260200190600101906126d0565b505050509050919050565b6000600a60008373ffffffffffffffffffffffffffffffffffffffff1673ffffffffffffffffffffffffffffffffffffffff168152602001908152602001600020549050919050565b60405180608001604052806000815260200160608152602001600073ffffffffffffffffffffffffffffffffffffffff168152602001600081525090565b82805461289c90613462565b90600052602060002090601f0160209004810192826128be5760008555612905565b82601f106128d757805160ff1916838001178555612905565b82800160010185558215612905579182015b828111156129045782518255916020019190600101906128e9565b5b50905061291291906129e3565b5090565b82805461292290613462565b90600052602060002090601f0160209004810192826129445760008555612992565b82601f106129555780548555612992565b8280016001018555821561299257600052602060002091601f016020900482015b82811115612991578254825591600101919060010190612976565b5b50905061299f91906129e3565b5090565b5080546129af90613462565b6000825580601f106129c157506129e0565b601f0160209004906000526020600020908101906129df91906129e3565b5b50565b5b808211156129fc5760008160009055506001016129e4565b5090565b6000612a13612a0e846131af565b61318a565b905082815260208101848484011115612a2b57600080fd5b612a36848285613420565b509392505050565b600081359050612a4d816136fa565b92915050565b600082601f830112612a6457600080fd5b8135612a74848260208601612a00565b91505092915050565b600081359050612a8c81613711565b92915050565b600060208284031215612aa457600080fd5b6000612ab284828501612a3e565b91505092915050565b600080600060608486031215612ad057600080fd5b6000612ade86828701612a3e565b9350506020612aef86828701612a7d565b9250506040612b0086828701612a7d565b9150509250925092565b600060208284031215612b1c57600080fd5b6000612b2a84828501612a7d565b91505092915050565b60008060408385031215612b4657600080fd5b6000612b5485828601612a7d565b925050602083013567ffffffffffffffff811115612b7157600080fd5b612b7d85828601612a53565b9150509250929050565b60008060408385031215612b9a57600080fd5b6000612ba885828601612a7d565b9250506020612bb985828601612a7d565b9150509250929050565b6000612bcf8383612ea6565b60608301905092915050565b6000612be78383612ee8565b905092915050565b6000612bfb8383612f4b565b905092915050565b612c0c816133d8565b82525050565b6000612c1d82613210565b612c278185613263565b9350612c32836131e0565b8060005b83811015612c63578151612c4a8882612bc3565b9750612c558361323c565b925050600181019050612c36565b5085935050505092915050565b6000612c7b8261321b565b612c858185613274565b935083602082028501612c97856131f0565b8060005b85811015612cd35784840389528151612cb48582612bdb565b9450612cbf83613249565b925060208a01995050600181019050612c9b565b50829750879550505050505092915050565b6000612cf082613226565b612cfa8185613285565b935083602082028501612d0c85613200565b8060005b85811015612d485784840389528151612d298582612bef565b9450612d3483613256565b925060208a01995050600181019050612d10565b50829750879550505050505092915050565b612d63816133ea565b82525050565b612d72816133ea565b82525050565b6000612d8382613231565b612d8d81856132a1565b9350612d9d81856020860161342f565b612da6816135ca565b840191505092915050565b6000612dbe602d836132b2565b9150612dc9826135db565b604082019050919050565b6000612de16015836132b2565b9150612dec8261362a565b602082019050919050565b6000612e046013836132b2565b9150612e0f82613653565b602082019050919050565b6000612e27600e836132b2565b9150612e328261367c565b602082019050919050565b6000612e4a600083613296565b9150612e55826136a5565b600082019050919050565b6000612e6d601b836132b2565b9150612e78826136a8565b602082019050919050565b6000612e90601c836132b2565b9150612e9b826136d1565b602082019050919050565b606082016000820151612ebc6000850182612c03565b506020820151612ecf6020850182612f9b565b506040820151612ee26040850182612f9b565b50505050565b6000608083016000830151612f006000860182612f9b565b5060208301518482036020860152612f188282612d78565b9150506040830151612f2d6040860182612c03565b506060830151612f406060860182612f9b565b508091505092915050565b60006060830160008301518482036000860152612f688282612ee8565b9150506020830151612f7d6020860182612f9b565b506040830151612f906040860182612d5a565b508091505092915050565b612fa481613416565b82525050565b612fb381613416565b82525050565b6000612fc482612e3d565b9150819050919050565b60006020820190508181036000830152612fe88184612c12565b905092915050565b6000602082019050818103600083015261300a8184612c70565b905092915050565b6000602082019050818103600083015261302c8184612ce5565b905092915050565b60006020820190506130496000830184612d69565b92915050565b6000602082019050818103600083015261306881612db1565b9050919050565b6000602082019050818103600083015261308881612dd4565b9050919050565b600060208201905081810360008301526130a881612df7565b9050919050565b600060208201905081810360008301526130c881612e1a565b9050919050565b600060208201905081810360008301526130e881612e60565b9050919050565b6000602082019050818103600083015261310881612e83565b9050919050565b60006020820190506131246000830184612faa565b92915050565b600060408201905061313f6000830185612faa565b61314c6020830184612faa565b9392505050565b60006060820190506131686000830186612faa565b6131756020830185612faa565b6131826040830184612faa565b949350505050565b60006131946131a5565b90506131a08282613494565b919050565b6000604051905090565b600067ffffffffffffffff8211156131ca576131c961359b565b5b6131d3826135ca565b9050602081019050919050565b6000819050602082019050919050565b6000819050602082019050919050565b6000819050602082019050919050565b600081519050919050565b600081519050919050565b600081519050919050565b600081519050919050565b6000602082019050919050565b6000602082019050919050565b6000602082019050919050565b600082825260208201905092915050565b600082825260208201905092915050565b600082825260208201905092915050565b600081905092915050565b600082825260208201905092915050565b600082825260208201905092915050565b60006132ce82613416565b91506132d983613416565b9250827fffffffffffffffffffffffffffffffffffffffffffffffffffffffffffffffff0382111561330e5761330d61350e565b5b828201905092915050565b600061332482613416565b915061332f83613416565b92508261333f5761333e61353d565b5b828204905092915050565b600061335582613416565b915061336083613416565b9250817fffffffffffffffffffffffffffffffffffffffffffffffffffffffffffffffff04831182151516156133995761339861350e565b5b828202905092915050565b60006133af82613416565b91506133ba83613416565b9250828210156133cd576133cc61350e565b5b828203905092915050565b60006133e3826133f6565b9050919050565b60008115159050919050565b600073ffffffffffffffffffffffffffffffffffffffff82169050919050565b6000819050919050565b82818337600083830152505050565b60005b8381101561344d578082015181840152602081019050613432565b8381111561345c576000848401525b50505050565b6000600282049050600182168061347a57607f821691505b6020821081141561348e5761348d61356c565b5b50919050565b61349d826135ca565b810181811067ffffffffffffffff821117156134bc576134bb61359b565b5b80604052505050565b60006134d082613416565b91507fffffffffffffffffffffffffffffffffffffffffffffffffffffffffffffffff8214156135035761350261350e565b5b600182019050919050565b7f4e487b7100000000000000000000000000000000000000000000000000000000600052601160045260246000fd5b7f4e487b7100000000000000000000000000000000000000000000000000000000600052601260045260246000fd5b7f4e487b7100000000000000000000000000000000000000000000000000000000600052602260045260246000fd5b7f4e487b7100000000000000000000000000000000000000000000000000000000600052604160045260246000fd5b6000601f19601f8301169050919050565b7f63726561746f7220686173206e6f20737562736372697074696f6e20706c616e60008201527f2077697468207468697320696400000000000000000000000000000000000000602082015250565b7f6661696c656420746f2073656e6420616d6f756e740000000000000000000000600082015250565b7f616c72656164792068617665206120706c616e00000000000000000000000000600082015250565b7f4e6f2072652d656e7472616e6379000000000000000000000000000000000000600082015250565b50565b7f6e6f7420656e6f7567682066756e6420746f2077697468647261770000000000600082015250565b7f6e6f7420656e6f7567682066756e6420746f2073756273637269626500000000600082015250565b613703816133d8565b811461370e57600080fd5b50565b61371a81613416565b811461372557600080fd5b5056fea2646970667358221220c18461f20d7ba4b69a1d59f20e59391ed4e1190391efffa944e8e07fb09dc35464736f6c63430008040033",
  "linkReferences": {},
  "deployedLinkReferences": {}
}