{
  "_format": "hh-sol-artifact-1",
  "contractName": "Backer",
  "sourceName": "contracts/Backer.sol",
  "abi": [
    {
      "inputs": [
        {
          "internalType": "uint256",
          "name": "_period",
          "type": "uint256"
        }
      ],
      "stateMutability": "nonpayable",
      "type": "constructor"
    },
    {
      "anonymous": false,
      "inputs": [
        {
          "indexed": false,
          "internalType": "uint256",
          "name": "period",
          "type": "uint256"
        },
        {
          "indexed": true,
          "internalType": "address",
          "name": "supporter",
          "type": "address"
        },
        {
          "indexed": false,
          "internalType": "uint256",
          "name": "amount",
          "type": "uint256"
        }
      ],
      "name": "Deposit",
      "type": "event"
    },
    {
      "anonymous": false,
      "inputs": [
        {
          "indexed": false,
          "internalType": "uint256",
          "name": "period",
          "type": "uint256"
        },
        {
          "indexed": true,
          "internalType": "address",
          "name": "supporter",
          "type": "address"
        },
        {
          "indexed": true,
          "internalType": "address",
          "name": "creator",
          "type": "address"
        },
        {
          "indexed": false,
          "internalType": "uint256",
          "name": "subscriptionPlanId",
          "type": "uint256"
        },
        {
          "indexed": false,
          "internalType": "uint256",
          "name": "numOfPeriods",
          "type": "uint256"
        }
      ],
      "name": "Subscribe",
      "type": "event"
    },
    {
      "anonymous": false,
      "inputs": [
        {
          "indexed": false,
          "internalType": "uint256",
          "name": "period",
          "type": "uint256"
        },
        {
          "indexed": true,
          "internalType": "address",
          "name": "supporter",
          "type": "address"
        },
        {
          "indexed": true,
          "internalType": "address",
          "name": "creator",
          "type": "address"
        },
        {
          "indexed": false,
          "internalType": "uint256",
          "name": "subscriptionPlanId",
          "type": "uint256"
        }
      ],
      "name": "SubscribeCancelled",
      "type": "event"
    },
    {
      "anonymous": false,
      "inputs": [
        {
          "indexed": false,
          "internalType": "uint256",
          "name": "period",
          "type": "uint256"
        },
        {
          "indexed": true,
          "internalType": "address",
          "name": "recipient",
          "type": "address"
        },
        {
          "indexed": false,
          "internalType": "uint256",
          "name": "amount",
          "type": "uint256"
        }
      ],
      "name": "Withdraw",
      "type": "event"
    },
    {
      "inputs": [
        {
          "internalType": "uint256",
          "name": "amountPerPeriod",
          "type": "uint256"
        },
        {
          "internalType": "uint256",
          "name": "numOfPeriods",
          "type": "uint256"
        }
      ],
      "name": "canSubscribe",
      "outputs": [
        {
          "internalType": "bool",
          "name": "",
          "type": "bool"
        }
      ],
      "stateMutability": "view",
      "type": "function"
    },
    {
      "inputs": [
        {
          "internalType": "address",
          "name": "creator",
          "type": "address"
        }
      ],
      "name": "cancelSubscribe",
      "outputs": [],
      "stateMutability": "nonpayable",
      "type": "function"
    },
    {
      "inputs": [],
      "name": "claimCreatorPayment",
      "outputs": [],
      "stateMutability": "nonpayable",
      "type": "function"
    },
    {
      "inputs": [],
      "name": "currentPeriod",
      "outputs": [
        {
          "internalType": "uint256",
          "name": "",
          "type": "uint256"
        }
      ],
      "stateMutability": "view",
      "type": "function"
    },
    {
      "inputs": [],
      "name": "deposit",
      "outputs": [],
      "stateMutability": "payable",
      "type": "function"
    },
    {
      "inputs": [
        {
          "internalType": "address",
          "name": "user",
          "type": "address"
        }
      ],
      "name": "getBalance",
      "outputs": [
        {
          "internalType": "uint256",
          "name": "",
          "type": "uint256"
        }
      ],
      "stateMutability": "view",
      "type": "function"
    },
    {
      "inputs": [],
      "name": "getCreatorPayment",
      "outputs": [
        {
          "internalType": "uint256",
          "name": "",
          "type": "uint256"
        }
      ],
      "stateMutability": "view",
      "type": "function"
    },
    {
      "inputs": [
        {
          "internalType": "address",
          "name": "creator",
          "type": "address"
        }
      ],
      "name": "getCreatorSubscribers",
      "outputs": [
        {
          "components": [
            {
              "internalType": "address",
              "name": "supporter",
              "type": "address"
            },
            {
              "internalType": "uint256",
              "name": "subscriptionPlanId",
              "type": "uint256"
            },
            {
              "internalType": "uint256",
              "name": "afterLastPeriod",
              "type": "uint256"
            }
          ],
          "internalType": "struct Backer.Subscriber[]",
          "name": "",
          "type": "tuple[]"
        }
      ],
      "stateMutability": "view",
      "type": "function"
    },
    {
      "inputs": [
        {
          "internalType": "address",
          "name": "creator",
          "type": "address"
        }
      ],
      "name": "getCreatorSubscriptionPlans",
      "outputs": [
        {
          "components": [
            {
              "internalType": "uint256",
              "name": "id",
              "type": "uint256"
            },
            {
              "internalType": "string",
              "name": "name",
              "type": "string"
            },
            {
              "internalType": "address",
              "name": "creator",
              "type": "address"
            },
            {
              "internalType": "uint256",
              "name": "amountPerPeriod",
              "type": "uint256"
            }
          ],
          "internalType": "struct Backer.SubscriptionPlan[]",
          "name": "",
          "type": "tuple[]"
        }
      ],
      "stateMutability": "view",
      "type": "function"
    },
    {
      "inputs": [
        {
          "internalType": "address",
          "name": "supporter",
          "type": "address"
        }
      ],
      "name": "getSupporterSubscriptions",
      "outputs": [
        {
          "components": [
            {
              "components": [
                {
                  "internalType": "uint256",
                  "name": "id",
                  "type": "uint256"
                },
                {
                  "internalType": "string",
                  "name": "name",
                  "type": "string"
                },
                {
                  "internalType": "address",
                  "name": "creator",
                  "type": "address"
                },
                {
                  "internalType": "uint256",
                  "name": "amountPerPeriod",
                  "type": "uint256"
                }
              ],
              "internalType": "struct Backer.SubscriptionPlan",
              "name": "subscriptionPlan",
              "type": "tuple"
            },
            {
              "internalType": "uint256",
              "name": "afterLastPeriod",
              "type": "uint256"
            },
            {
              "internalType": "bool",
              "name": "initialized",
              "type": "bool"
            }
          ],
          "internalType": "struct Backer.Subscription[]",
          "name": "",
          "type": "tuple[]"
        }
      ],
      "stateMutability": "view",
      "type": "function"
    },
    {
      "inputs": [
        {
          "internalType": "uint256",
          "name": "amountPerPeriod",
          "type": "uint256"
        },
        {
          "internalType": "string",
          "name": "name",
          "type": "string"
        }
      ],
      "name": "newSubscriptionPlan",
      "outputs": [],
      "stateMutability": "nonpayable",
      "type": "function"
    },
    {
      "inputs": [],
      "name": "period",
      "outputs": [
        {
          "internalType": "uint256",
          "name": "",
          "type": "uint256"
        }
      ],
      "stateMutability": "view",
      "type": "function"
    },
    {
      "inputs": [
        {
          "internalType": "address",
          "name": "creator",
          "type": "address"
        },
        {
          "internalType": "uint256",
          "name": "amount",
          "type": "uint256"
        }
      ],
      "name": "sendTip",
      "outputs": [],
      "stateMutability": "nonpayable",
      "type": "function"
    },
    {
      "inputs": [
        {
          "internalType": "address",
          "name": "creator",
          "type": "address"
        },
        {
          "internalType": "uint256",
          "name": "subscriptionPlanId",
          "type": "uint256"
        },
        {
          "internalType": "uint256",
          "name": "numOfPeriods",
          "type": "uint256"
        }
      ],
      "name": "subscribe",
      "outputs": [],
      "stateMutability": "nonpayable",
      "type": "function"
    },
    {
      "inputs": [
        {
          "internalType": "uint256",
          "name": "amount",
          "type": "uint256"
        }
      ],
      "name": "withdraw",
      "outputs": [],
      "stateMutability": "nonpayable",
      "type": "function"
    }
  ],
  "bytecode": "0x60806040523480156200001157600080fd5b5060405162003a7b38038062003a7b833981810160405281019062000037919062000063565b806002819055504260038190555050620000b3565b6000815190506200005d8162000099565b92915050565b6000602082840312156200007657600080fd5b600062000086848285016200004c565b91505092915050565b6000819050919050565b620000a4816200008f565b8114620000b057600080fd5b50565b6139b880620000c36000396000f3fe6080604052600436106100e85760003560e01c8063980131331161008a578063e11d48b111610059578063e11d48b1146102bf578063ef78d4fd146102e8578063efac60a314610313578063f8b2cb4f14610350576100e8565b8063980131331461024a5780639c8285b914610273578063c5b981fa1461028a578063d0e30db0146102b5576100e8565b80632e1a7d4d116100c65780632e1a7d4d1461017e578063600890e0146101a7578063799e50e9146101e457806384bcbebc14610221576100e8565b806306040618146100ed57806322d4a1751461011857806328eaf27314610141575b600080fd5b3480156100f957600080fd5b5061010261038d565b60405161010f9190613340565b60405180910390f35b34801561012457600080fd5b5061013f600480360381019061013a9190612ca9565b6103af565b005b34801561014d57600080fd5b5061016860048036038101906101639190612c44565b6111f0565b6040516101759190613223565b60405180910390f35b34801561018a57600080fd5b506101a560048036038101906101a09190612cf8565b6113c3565b005b3480156101b357600080fd5b506101ce60048036038101906101c99190612d75565b611624565b6040516101db9190613245565b60405180910390f35b3480156101f057600080fd5b5061020b60048036038101906102069190612c44565b61167c565b60405161021891906131df565b60405180910390f35b34801561022d57600080fd5b5061024860048036038101906102439190612c6d565b611784565b005b34801561025657600080fd5b50610271600480360381019061026c9190612d21565b6118b6565b005b34801561027f57600080fd5b506102886119f4565b005b34801561029657600080fd5b5061029f611aa4565b6040516102ac9190613340565b60405180910390f35b6102bd611b78565b005b3480156102cb57600080fd5b506102e660048036038101906102e19190612c44565b611c27565b005b3480156102f457600080fd5b506102fd61281b565b60405161030a9190613340565b60405180910390f35b34801561031f57600080fd5b5061033a60048036038101906103359190612c44565b612821565b6040516103479190613201565b60405180910390f35b34801561035c57600080fd5b5061037760048036038101906103729190612c44565b6129bb565b6040516103849190613340565b60405180910390f35b6000600254600354426103a091906135d5565b6103aa919061354a565b905090565b6103b7612a04565b600080600090505b600460008773ffffffffffffffffffffffffffffffffffffffff1673ffffffffffffffffffffffffffffffffffffffff168152602001908152602001600020805490508110156106435784600460008873ffffffffffffffffffffffffffffffffffffffff1673ffffffffffffffffffffffffffffffffffffffff1681526020019081526020016000208281548110610481577f4e487b7100000000000000000000000000000000000000000000000000000000600052603260045260246000fd5b906000526020600020906004020160000154141561063057600460008773ffffffffffffffffffffffffffffffffffffffff1673ffffffffffffffffffffffffffffffffffffffff1681526020019081526020016000208181548110610510577f4e487b7100000000000000000000000000000000000000000000000000000000600052603260045260246000fd5b90600052602060002090600402016040518060800160405290816000820154815260200160018201805461054390613693565b80601f016020809104026020016040519081016040528092919081815260200182805461056f90613693565b80156105bc5780601f10610591576101008083540402835291602001916105bc565b820191906000526020600020905b81548152906001019060200180831161059f57829003601f168201915b505050505081526020016002820160009054906101000a900473ffffffffffffffffffffffffffffffffffffffff1673ffffffffffffffffffffffffffffffffffffffff1673ffffffffffffffffffffffffffffffffffffffff168152602001600382015481525050925060019150610643565b808061063b906136f6565b9150506103bf565b81610683576040517f08c379a000000000000000000000000000000000000000000000000000000000815260040161067a90613280565b60405180910390fd5b610691836060015185611624565b6106d0576040517f08c379a00000000000000000000000000000000000000000000000000000000081526004016106c790613320565b60405180910390fd5b600560003373ffffffffffffffffffffffffffffffffffffffff1673ffffffffffffffffffffffffffffffffffffffff16815260200190815260200160002060008773ffffffffffffffffffffffffffffffffffffffff1673ffffffffffffffffffffffffffffffffffffffff16815260200190815260200160002060050160009054906101000a900460ff1615806107ef575061076c61038d565b600560003373ffffffffffffffffffffffffffffffffffffffff1673ffffffffffffffffffffffffffffffffffffffff16815260200190815260200160002060008873ffffffffffffffffffffffffffffffffffffffff1673ffffffffffffffffffffffffffffffffffffffff1681526020019081526020016000206004015411155b61082e576040517f08c379a0000000000000000000000000000000000000000000000000000000008152600401610825906132c0565b60405180910390fd5b600061083861038d565b90505b8461084461038d565b61084e91906134f4565b8110156108d3578360600151600860008973ffffffffffffffffffffffffffffffffffffffff1673ffffffffffffffffffffffffffffffffffffffff168152602001908152602001600020600083815260200190815260200160002060008282546108b991906134f4565b9250508190555080806108cb906136f6565b91505061083b565b5060006040518060600160405280858152602001866108f061038d565b6108fa91906134f4565b815260200160011515815250905080600560003373ffffffffffffffffffffffffffffffffffffffff1673ffffffffffffffffffffffffffffffffffffffff16815260200190815260200160002060008973ffffffffffffffffffffffffffffffffffffffff1673ffffffffffffffffffffffffffffffffffffffff1681526020019081526020016000206000820151816000016000820151816000015560208201518160010190805190602001906109b4929190612a42565b5060408201518160020160006101000a81548173ffffffffffffffffffffffffffffffffffffffff021916908373ffffffffffffffffffffffffffffffffffffffff1602179055506060820151816003015550506020820151816004015560408201518160050160006101000a81548160ff0219169083151502179055509050506000600660003373ffffffffffffffffffffffffffffffffffffffff1673ffffffffffffffffffffffffffffffffffffffff168152602001908152602001600020805490509050600092505b80831015610cb6578773ffffffffffffffffffffffffffffffffffffffff16600660003373ffffffffffffffffffffffffffffffffffffffff1673ffffffffffffffffffffffffffffffffffffffff1681526020019081526020016000208481548110610b17577f4e487b7100000000000000000000000000000000000000000000000000000000600052603260045260246000fd5b906000526020600020906006020160000160020160009054906101000a900473ffffffffffffffffffffffffffffffffffffffff1673ffffffffffffffffffffffffffffffffffffffff161415610ca35781600660003373ffffffffffffffffffffffffffffffffffffffff1673ffffffffffffffffffffffffffffffffffffffff1681526020019081526020016000208481548110610be0577f4e487b7100000000000000000000000000000000000000000000000000000000600052603260045260246000fd5b9060005260206000209060060201600082015181600001600082015181600001556020820151816001019080519060200190610c1d929190612a42565b5060408201518160020160006101000a81548173ffffffffffffffffffffffffffffffffffffffff021916908373ffffffffffffffffffffffffffffffffffffffff1602179055506060820151816003015550506020820151816004015560408201518160050160006101000a81548160ff021916908315150217905550905050610cb6565b8280610cae906136f6565b935050610a81565b80831415610dd757600660003373ffffffffffffffffffffffffffffffffffffffff1673ffffffffffffffffffffffffffffffffffffffff168152602001908152602001600020829080600181540180825580915050600190039060005260206000209060060201600090919091909150600082015181600001600082015181600001556020820151816001019080519060200190610d56929190612a42565b5060408201518160020160006101000a81548173ffffffffffffffffffffffffffffffffffffffff021916908373ffffffffffffffffffffffffffffffffffffffff1602179055506060820151816003015550506020820151816004015560408201518160050160006101000a81548160ff02191690831515021790555050505b600060405180606001604052803373ffffffffffffffffffffffffffffffffffffffff16815260200187600001518152602001846020015181525090506000600760008b73ffffffffffffffffffffffffffffffffffffffff1673ffffffffffffffffffffffffffffffffffffffff168152602001908152602001600020805490509050600094505b80851015611040573373ffffffffffffffffffffffffffffffffffffffff16600760008c73ffffffffffffffffffffffffffffffffffffffff1673ffffffffffffffffffffffffffffffffffffffff1681526020019081526020016000208681548110610ef6577f4e487b7100000000000000000000000000000000000000000000000000000000600052603260045260246000fd5b906000526020600020906003020160000160009054906101000a900473ffffffffffffffffffffffffffffffffffffffff1673ffffffffffffffffffffffffffffffffffffffff16141561102d5781600760008c73ffffffffffffffffffffffffffffffffffffffff1673ffffffffffffffffffffffffffffffffffffffff1681526020019081526020016000208681548110610fbc577f4e487b7100000000000000000000000000000000000000000000000000000000600052603260045260246000fd5b906000526020600020906003020160008201518160000160006101000a81548173ffffffffffffffffffffffffffffffffffffffff021916908373ffffffffffffffffffffffffffffffffffffffff1602179055506020820151816001015560408201518160020155905050611040565b8480611038906136f6565b955050610e60565b8085141561110f57600760008b73ffffffffffffffffffffffffffffffffffffffff1673ffffffffffffffffffffffffffffffffffffffff16815260200190815260200160002082908060018154018082558091505060019003906000526020600020906003020160009091909190915060008201518160000160006101000a81548173ffffffffffffffffffffffffffffffffffffffff021916908373ffffffffffffffffffffffffffffffffffffffff160217905550602082015181600101556040820151816002015550505b87876060015161111f919061357b565b600a60003373ffffffffffffffffffffffffffffffffffffffff1673ffffffffffffffffffffffffffffffffffffffff168152602001908152602001600020600082825461116d91906135d5565b925050819055508973ffffffffffffffffffffffffffffffffffffffff163373ffffffffffffffffffffffffffffffffffffffff167f034f7638a4bf87941eab61937397b06c1308e493214ac51a8c34fb601b625f396111cb61038d565b8c8c6040516111dc93929190613384565b60405180910390a350505050505050505050565b6060600660008373ffffffffffffffffffffffffffffffffffffffff1673ffffffffffffffffffffffffffffffffffffffff168152602001908152602001600020805480602002602001604051908101604052809291908181526020016000905b828210156113b85783829060005260206000209060060201604051806060016040529081600082016040518060800160405290816000820154815260200160018201805461129e90613693565b80601f01602080910402602001604051908101604052809291908181526020018280546112ca90613693565b80156113175780601f106112ec57610100808354040283529160200191611317565b820191906000526020600020905b8154815290600101906020018083116112fa57829003601f168201915b505050505081526020016002820160009054906101000a900473ffffffffffffffffffffffffffffffffffffffff1673ffffffffffffffffffffffffffffffffffffffff1673ffffffffffffffffffffffffffffffffffffffff1681526020016003820154815250508152602001600482015481526020016005820160009054906101000a900460ff16151515158152505081526020019060010190611251565b505050509050919050565b60008054906101000a900460ff1615611411576040517f08c379a0000000000000000000000000000000000000000000000000000000008152600401611408906132e0565b60405180910390fd5b60016000806101000a81548160ff02191690831515021790555080600a60003373ffffffffffffffffffffffffffffffffffffffff1673ffffffffffffffffffffffffffffffffffffffff1681526020019081526020016000205410156114ad576040517f08c379a00000000000000000000000000000000000000000000000000000000081526004016114a490613300565b60405180910390fd5b60003373ffffffffffffffffffffffffffffffffffffffff16826040516114d3906131ca565b60006040518083038185875af1925050503d8060008114611510576040519150601f19603f3d011682016040523d82523d6000602084013e611515565b606091505b5050905080611559576040517f08c379a0000000000000000000000000000000000000000000000000000000008152600401611550906132a0565b60405180910390fd5b81600a60003373ffffffffffffffffffffffffffffffffffffffff1673ffffffffffffffffffffffffffffffffffffffff16815260200190815260200160002060008282546115a891906135d5565b925050819055503373ffffffffffffffffffffffffffffffffffffffff167f9da6493a92039daf47d1f2d7a782299c5994c6323eb1e972f69c432089ec52bf6115ef61038d565b846040516115fe92919061335b565b60405180910390a25060008060006101000a81548160ff02191690831515021790555050565b60008183611632919061357b565b600a60003373ffffffffffffffffffffffffffffffffffffffff1673ffffffffffffffffffffffffffffffffffffffff168152602001908152602001600020541015905092915050565b6060600760008373ffffffffffffffffffffffffffffffffffffffff1673ffffffffffffffffffffffffffffffffffffffff168152602001908152602001600020805480602002602001604051908101604052809291908181526020016000905b8282101561177957838290600052602060002090600302016040518060600160405290816000820160009054906101000a900473ffffffffffffffffffffffffffffffffffffffff1673ffffffffffffffffffffffffffffffffffffffff1673ffffffffffffffffffffffffffffffffffffffff16815260200160018201548152602001600282015481525050815260200190600101906116dd565b505050509050919050565b80600a60003373ffffffffffffffffffffffffffffffffffffffff1673ffffffffffffffffffffffffffffffffffffffff168152602001908152602001600020541015611806576040517f08c379a00000000000000000000000000000000000000000000000000000000081526004016117fd90613260565b60405180910390fd5b80600a60003373ffffffffffffffffffffffffffffffffffffffff1673ffffffffffffffffffffffffffffffffffffffff168152602001908152602001600020600082825461185591906135d5565b9250508190555080600a60008473ffffffffffffffffffffffffffffffffffffffff1673ffffffffffffffffffffffffffffffffffffffff16815260200190815260200160002060008282546118ab91906134f4565b925050819055505050565b60018060008282546118c891906134f4565b925050819055506000604051806080016040528060015481526020018381526020013373ffffffffffffffffffffffffffffffffffffffff168152602001848152509050600460003373ffffffffffffffffffffffffffffffffffffffff1673ffffffffffffffffffffffffffffffffffffffff16815260200190815260200160002081908060018154018082558091505060019003906000526020600020906004020160009091909190915060008201518160000155602082015181600101908051906020019061199b929190612a42565b5060408201518160020160006101000a81548173ffffffffffffffffffffffffffffffffffffffff021916908373ffffffffffffffffffffffffffffffffffffffff160217905550606082015181600301555050505050565b60006119fe611aa4565b9050611a0861038d565b600960003373ffffffffffffffffffffffffffffffffffffffff1673ffffffffffffffffffffffffffffffffffffffff1681526020019081526020016000208190555080600a60003373ffffffffffffffffffffffffffffffffffffffff1673ffffffffffffffffffffffffffffffffffffffff1681526020019081526020016000206000828254611a9a91906134f4565b9250508190555050565b600080600090506000600960003373ffffffffffffffffffffffffffffffffffffffff1673ffffffffffffffffffffffffffffffffffffffff1681526020019081526020016000205490505b611af861038d565b811015611b7057600860003373ffffffffffffffffffffffffffffffffffffffff1673ffffffffffffffffffffffffffffffffffffffff16815260200190815260200160002060008281526020019081526020016000205482611b5b91906134f4565b91508080611b68906136f6565b915050611af0565b508091505090565b34600a60003373ffffffffffffffffffffffffffffffffffffffff1673ffffffffffffffffffffffffffffffffffffffff1681526020019081526020016000206000828254611bc791906134f4565b925050819055503373ffffffffffffffffffffffffffffffffffffffff167feaa18152488ce5959073c9c79c88ca90b3d96c00de1f118cfaad664c3dab06b9611c0e61038d565b34604051611c1d92919061335b565b60405180910390a2565b6000600560003373ffffffffffffffffffffffffffffffffffffffff1673ffffffffffffffffffffffffffffffffffffffff16815260200190815260200160002060008373ffffffffffffffffffffffffffffffffffffffff1673ffffffffffffffffffffffffffffffffffffffff1681526020019081526020016000206040518060600160405290816000820160405180608001604052908160008201548152602001600182018054611cda90613693565b80601f0160208091040260200160405190810160405280929190818152602001828054611d0690613693565b8015611d535780601f10611d2857610100808354040283529160200191611d53565b820191906000526020600020905b815481529060010190602001808311611d3657829003601f168201915b505050505081526020016002820160009054906101000a900473ffffffffffffffffffffffffffffffffffffffff1673ffffffffffffffffffffffffffffffffffffffff1673ffffffffffffffffffffffffffffffffffffffff1681526020016003820154815250508152602001600482015481526020016005820160009054906101000a900460ff16151515158152505090508060400151611df557600080fd5b6001611dff61038d565b8260200151611e0e91906135d5565b611e1891906135d5565b816000015160600151611e2b919061357b565b600a60003373ffffffffffffffffffffffffffffffffffffffff1673ffffffffffffffffffffffffffffffffffffffff1681526020019081526020016000206000828254611e7991906134f4565b9250508190555060006001611e8c61038d565b611e9691906134f4565b90505b8160200151811015611f2757816000015160600151600860008573ffffffffffffffffffffffffffffffffffffffff1673ffffffffffffffffffffffffffffffffffffffff16815260200190815260200160002060008381526020019081526020016000206000828254611f0d91906135d5565b925050819055508080611f1f906136f6565b915050611e99565b506000600660003373ffffffffffffffffffffffffffffffffffffffff1673ffffffffffffffffffffffffffffffffffffffff16815260200190815260200160002080549050905060005b8181101561231a57826000015160000151600660003373ffffffffffffffffffffffffffffffffffffffff1673ffffffffffffffffffffffffffffffffffffffff1681526020019081526020016000208281548110611ffa577f4e487b7100000000000000000000000000000000000000000000000000000000600052603260045260246000fd5b906000526020600020906006020160000160000154141561230757600660003373ffffffffffffffffffffffffffffffffffffffff1673ffffffffffffffffffffffffffffffffffffffff16815260200190815260200160002060018361206191906135d5565b81548110612098577f4e487b7100000000000000000000000000000000000000000000000000000000600052603260045260246000fd5b9060005260206000209060060201600660003373ffffffffffffffffffffffffffffffffffffffff1673ffffffffffffffffffffffffffffffffffffffff168152602001908152602001600020828154811061211d577f4e487b7100000000000000000000000000000000000000000000000000000000600052603260045260246000fd5b9060005260206000209060060201600082018160000160008201548160000155600182018160010190805461215190613693565b61215c929190612ac8565b506002820160009054906101000a900473ffffffffffffffffffffffffffffffffffffffff168160020160006101000a81548173ffffffffffffffffffffffffffffffffffffffff021916908373ffffffffffffffffffffffffffffffffffffffff160217905550600382015481600301555050600482015481600401556005820160009054906101000a900460ff168160050160006101000a81548160ff021916908315150217905550905050600660003373ffffffffffffffffffffffffffffffffffffffff1673ffffffffffffffffffffffffffffffffffffffff16815260200190815260200160002080548061227f577f4e487b7100000000000000000000000000000000000000000000000000000000600052603160045260246000fd5b600190038181906000526020600020906006020160008082016000808201600090556001820160006122b19190612b55565b6002820160006101000a81549073ffffffffffffffffffffffffffffffffffffffff02191690556003820160009055505060048201600090556005820160006101000a81549060ff02191690555050905561231a565b8080612312906136f6565b915050611f72565b506000600760008573ffffffffffffffffffffffffffffffffffffffff1673ffffffffffffffffffffffffffffffffffffffff16815260200190815260200160002080549050905060005b818110156126ba573373ffffffffffffffffffffffffffffffffffffffff16600760008773ffffffffffffffffffffffffffffffffffffffff1673ffffffffffffffffffffffffffffffffffffffff16815260200190815260200160002082815481106123fb577f4e487b7100000000000000000000000000000000000000000000000000000000600052603260045260246000fd5b906000526020600020906003020160000160009054906101000a900473ffffffffffffffffffffffffffffffffffffffff1673ffffffffffffffffffffffffffffffffffffffff1614156126a757600760008673ffffffffffffffffffffffffffffffffffffffff1673ffffffffffffffffffffffffffffffffffffffff16815260200190815260200160002060018361249591906135d5565b815481106124cc577f4e487b7100000000000000000000000000000000000000000000000000000000600052603260045260246000fd5b9060005260206000209060030201600760008773ffffffffffffffffffffffffffffffffffffffff1673ffffffffffffffffffffffffffffffffffffffff1681526020019081526020016000208281548110612551577f4e487b7100000000000000000000000000000000000000000000000000000000600052603260045260246000fd5b90600052602060002090600302016000820160009054906101000a900473ffffffffffffffffffffffffffffffffffffffff168160000160006101000a81548173ffffffffffffffffffffffffffffffffffffffff021916908373ffffffffffffffffffffffffffffffffffffffff1602179055506001820154816001015560028201548160020155905050600760008673ffffffffffffffffffffffffffffffffffffffff1673ffffffffffffffffffffffffffffffffffffffff168152602001908152602001600020805480612652577f4e487b7100000000000000000000000000000000000000000000000000000000600052603160045260246000fd5b6001900381819060005260206000209060030201600080820160006101000a81549073ffffffffffffffffffffffffffffffffffffffff021916905560018201600090556002820160009055505090556126ba565b80806126b2906136f6565b915050612365565b50600560003373ffffffffffffffffffffffffffffffffffffffff1673ffffffffffffffffffffffffffffffffffffffff16815260200190815260200160002060008573ffffffffffffffffffffffffffffffffffffffff1673ffffffffffffffffffffffffffffffffffffffff16815260200190815260200160002060008082016000808201600090556001820160006127559190612b55565b6002820160006101000a81549073ffffffffffffffffffffffffffffffffffffffff02191690556003820160009055505060048201600090556005820160006101000a81549060ff021916905550508373ffffffffffffffffffffffffffffffffffffffff163373ffffffffffffffffffffffffffffffffffffffff167f58daab947c81d281f81bd88ec10a9f45fde59788c098989597fa09627543d31a60025486600001516000015160405161280d92919061335b565b60405180910390a350505050565b60025481565b6060600460008373ffffffffffffffffffffffffffffffffffffffff1673ffffffffffffffffffffffffffffffffffffffff168152602001908152602001600020805480602002602001604051908101604052809291908181526020016000905b828210156129b05783829060005260206000209060040201604051806080016040529081600082015481526020016001820180546128bf90613693565b80601f01602080910402602001604051908101604052809291908181526020018280546128eb90613693565b80156129385780601f1061290d57610100808354040283529160200191612938565b820191906000526020600020905b81548152906001019060200180831161291b57829003601f168201915b505050505081526020016002820160009054906101000a900473ffffffffffffffffffffffffffffffffffffffff1673ffffffffffffffffffffffffffffffffffffffff1673ffffffffffffffffffffffffffffffffffffffff16815260200160038201548152505081526020019060010190612882565b505050509050919050565b6000600a60008373ffffffffffffffffffffffffffffffffffffffff1673ffffffffffffffffffffffffffffffffffffffff168152602001908152602001600020549050919050565b60405180608001604052806000815260200160608152602001600073ffffffffffffffffffffffffffffffffffffffff168152602001600081525090565b828054612a4e90613693565b90600052602060002090601f016020900481019282612a705760008555612ab7565b82601f10612a8957805160ff1916838001178555612ab7565b82800160010185558215612ab7579182015b82811115612ab6578251825591602001919060010190612a9b565b5b509050612ac49190612b95565b5090565b828054612ad490613693565b90600052602060002090601f016020900481019282612af65760008555612b44565b82601f10612b075780548555612b44565b82800160010185558215612b4457600052602060002091601f016020900482015b82811115612b43578254825591600101919060010190612b28565b5b509050612b519190612b95565b5090565b508054612b6190613693565b6000825580601f10612b735750612b92565b601f016020900490600052602060002090810190612b919190612b95565b5b50565b5b80821115612bae576000816000905550600101612b96565b5090565b6000612bc5612bc0846133e0565b6133bb565b905082815260208101848484011115612bdd57600080fd5b612be8848285613651565b509392505050565b600081359050612bff81613954565b92915050565b600082601f830112612c1657600080fd5b8135612c26848260208601612bb2565b91505092915050565b600081359050612c3e8161396b565b92915050565b600060208284031215612c5657600080fd5b6000612c6484828501612bf0565b91505092915050565b60008060408385031215612c8057600080fd5b6000612c8e85828601612bf0565b9250506020612c9f85828601612c2f565b9150509250929050565b600080600060608486031215612cbe57600080fd5b6000612ccc86828701612bf0565b9350506020612cdd86828701612c2f565b9250506040612cee86828701612c2f565b9150509250925092565b600060208284031215612d0a57600080fd5b6000612d1884828501612c2f565b91505092915050565b60008060408385031215612d3457600080fd5b6000612d4285828601612c2f565b925050602083013567ffffffffffffffff811115612d5f57600080fd5b612d6b85828601612c05565b9150509250929050565b60008060408385031215612d8857600080fd5b6000612d9685828601612c2f565b9250506020612da785828601612c2f565b9150509250929050565b6000612dbd83836130b7565b60608301905092915050565b6000612dd583836130f9565b905092915050565b6000612de9838361315c565b905092915050565b612dfa81613609565b82525050565b6000612e0b82613441565b612e158185613494565b9350612e2083613411565b8060005b83811015612e51578151612e388882612db1565b9750612e438361346d565b925050600181019050612e24565b5085935050505092915050565b6000612e698261344c565b612e7381856134a5565b935083602082028501612e8585613421565b8060005b85811015612ec15784840389528151612ea28582612dc9565b9450612ead8361347a565b925060208a01995050600181019050612e89565b50829750879550505050505092915050565b6000612ede82613457565b612ee881856134b6565b935083602082028501612efa85613431565b8060005b85811015612f365784840389528151612f178582612ddd565b9450612f2283613487565b925060208a01995050600181019050612efe565b50829750879550505050505092915050565b612f518161361b565b82525050565b612f608161361b565b82525050565b6000612f7182613462565b612f7b81856134d2565b9350612f8b818560208601613660565b612f94816137fb565b840191505092915050565b6000612fac600f836134e3565b9150612fb78261380c565b602082019050919050565b6000612fcf602d836134e3565b9150612fda82613835565b604082019050919050565b6000612ff26015836134e3565b9150612ffd82613884565b602082019050919050565b60006130156013836134e3565b9150613020826138ad565b602082019050919050565b6000613038600e836134e3565b9150613043826138d6565b602082019050919050565b600061305b6000836134c7565b9150613066826138ff565b600082019050919050565b600061307e601b836134e3565b915061308982613902565b602082019050919050565b60006130a1601c836134e3565b91506130ac8261392b565b602082019050919050565b6060820160008201516130cd6000850182612df1565b5060208201516130e060208501826131ac565b5060408201516130f360408501826131ac565b50505050565b600060808301600083015161311160008601826131ac565b50602083015184820360208601526131298282612f66565b915050604083015161313e6040860182612df1565b50606083015161315160608601826131ac565b508091505092915050565b6000606083016000830151848203600086015261317982826130f9565b915050602083015161318e60208601826131ac565b5060408301516131a16040860182612f48565b508091505092915050565b6131b581613647565b82525050565b6131c481613647565b82525050565b60006131d58261304e565b9150819050919050565b600060208201905081810360008301526131f98184612e00565b905092915050565b6000602082019050818103600083015261321b8184612e5e565b905092915050565b6000602082019050818103600083015261323d8184612ed3565b905092915050565b600060208201905061325a6000830184612f57565b92915050565b6000602082019050818103600083015261327981612f9f565b9050919050565b6000602082019050818103600083015261329981612fc2565b9050919050565b600060208201905081810360008301526132b981612fe5565b9050919050565b600060208201905081810360008301526132d981613008565b9050919050565b600060208201905081810360008301526132f98161302b565b9050919050565b6000602082019050818103600083015261331981613071565b9050919050565b6000602082019050818103600083015261333981613094565b9050919050565b600060208201905061335560008301846131bb565b92915050565b600060408201905061337060008301856131bb565b61337d60208301846131bb565b9392505050565b600060608201905061339960008301866131bb565b6133a660208301856131bb565b6133b360408301846131bb565b949350505050565b60006133c56133d6565b90506133d182826136c5565b919050565b6000604051905090565b600067ffffffffffffffff8211156133fb576133fa6137cc565b5b613404826137fb565b9050602081019050919050565b6000819050602082019050919050565b6000819050602082019050919050565b6000819050602082019050919050565b600081519050919050565b600081519050919050565b600081519050919050565b600081519050919050565b6000602082019050919050565b6000602082019050919050565b6000602082019050919050565b600082825260208201905092915050565b600082825260208201905092915050565b600082825260208201905092915050565b600081905092915050565b600082825260208201905092915050565b600082825260208201905092915050565b60006134ff82613647565b915061350a83613647565b9250827fffffffffffffffffffffffffffffffffffffffffffffffffffffffffffffffff0382111561353f5761353e61373f565b5b828201905092915050565b600061355582613647565b915061356083613647565b9250826135705761356f61376e565b5b828204905092915050565b600061358682613647565b915061359183613647565b9250817fffffffffffffffffffffffffffffffffffffffffffffffffffffffffffffffff04831182151516156135ca576135c961373f565b5b828202905092915050565b60006135e082613647565b91506135eb83613647565b9250828210156135fe576135fd61373f565b5b828203905092915050565b600061361482613627565b9050919050565b60008115159050919050565b600073ffffffffffffffffffffffffffffffffffffffff82169050919050565b6000819050919050565b82818337600083830152505050565b60005b8381101561367e578082015181840152602081019050613663565b8381111561368d576000848401525b50505050565b600060028204905060018216806136ab57607f821691505b602082108114156136bf576136be61379d565b5b50919050565b6136ce826137fb565b810181811067ffffffffffffffff821117156136ed576136ec6137cc565b5b80604052505050565b600061370182613647565b91507fffffffffffffffffffffffffffffffffffffffffffffffffffffffffffffffff8214156137345761373361373f565b5b600182019050919050565b7f4e487b7100000000000000000000000000000000000000000000000000000000600052601160045260246000fd5b7f4e487b7100000000000000000000000000000000000000000000000000000000600052601260045260246000fd5b7f4e487b7100000000000000000000000000000000000000000000000000000000600052602260045260246000fd5b7f4e487b7100000000000000000000000000000000000000000000000000000000600052604160045260246000fd5b6000601f19601f8301169050919050565b7f6e6f7420656e6f7567682066756e640000000000000000000000000000000000600082015250565b7f63726561746f7220686173206e6f20737562736372697074696f6e20706c616e60008201527f2077697468207468697320696400000000000000000000000000000000000000602082015250565b7f6661696c656420746f2073656e6420616d6f756e740000000000000000000000600082015250565b7f616c72656164792068617665206120706c616e00000000000000000000000000600082015250565b7f4e6f2072652d656e7472616e6379000000000000000000000000000000000000600082015250565b50565b7f6e6f7420656e6f7567682066756e6420746f2077697468647261770000000000600082015250565b7f6e6f7420656e6f7567682066756e6420746f2073756273637269626500000000600082015250565b61395d81613609565b811461396857600080fd5b50565b61397481613647565b811461397f57600080fd5b5056fea26469706673582212203a01d3a92487bb10a44c5c9c3b07703badec7ada027e8da4e04fe1cd698738cd64736f6c63430008040033",
  "linkReferences": {},
  "deployedLinkReferences": {}
}