{
  "_format": "hh-sol-artifact-1",
  "contractName": "Backer",
  "sourceName": "contracts/Backer.sol",
  "abi": [
    {
      "inputs": [
        {
          "internalType": "uint256",
          "name": "_period",
          "type": "uint256"
        }
      ],
      "stateMutability": "nonpayable",
      "type": "constructor"
    },
    {
      "anonymous": false,
      "inputs": [
        {
          "indexed": false,
          "internalType": "uint256",
          "name": "period",
          "type": "uint256"
        },
        {
          "indexed": true,
          "internalType": "address",
          "name": "supporter",
          "type": "address"
        },
        {
          "indexed": false,
          "internalType": "uint256",
          "name": "amount",
          "type": "uint256"
        }
      ],
      "name": "Deposit",
      "type": "event"
    },
    {
      "anonymous": false,
      "inputs": [
        {
          "indexed": false,
          "internalType": "uint256",
          "name": "period",
          "type": "uint256"
        },
        {
          "indexed": true,
          "internalType": "address",
          "name": "supporter",
          "type": "address"
        },
        {
          "indexed": true,
          "internalType": "address",
          "name": "creator",
          "type": "address"
        },
        {
          "indexed": false,
          "internalType": "uint256",
          "name": "subscriptionPlanId",
          "type": "uint256"
        },
        {
          "indexed": false,
          "internalType": "uint256",
          "name": "numOfPeriods",
          "type": "uint256"
        }
      ],
      "name": "Subscribe",
      "type": "event"
    },
    {
      "anonymous": false,
      "inputs": [
        {
          "indexed": false,
          "internalType": "uint256",
          "name": "period",
          "type": "uint256"
        },
        {
          "indexed": true,
          "internalType": "address",
          "name": "supporter",
          "type": "address"
        },
        {
          "indexed": true,
          "internalType": "address",
          "name": "creator",
          "type": "address"
        },
        {
          "indexed": false,
          "internalType": "uint256",
          "name": "subscriptionPlanId",
          "type": "uint256"
        }
      ],
      "name": "SubscribeCancelled",
      "type": "event"
    },
    {
      "anonymous": false,
      "inputs": [
        {
          "indexed": false,
          "internalType": "uint256",
          "name": "period",
          "type": "uint256"
        },
        {
          "indexed": true,
          "internalType": "address",
          "name": "recipient",
          "type": "address"
        },
        {
          "indexed": false,
          "internalType": "uint256",
          "name": "amount",
          "type": "uint256"
        }
      ],
      "name": "Withdraw",
      "type": "event"
    },
    {
      "inputs": [
        {
          "internalType": "uint256",
          "name": "amountPerPeriod",
          "type": "uint256"
        },
        {
          "internalType": "uint256",
          "name": "numOfPeriods",
          "type": "uint256"
        }
      ],
      "name": "canSubscribe",
      "outputs": [
        {
          "internalType": "bool",
          "name": "",
          "type": "bool"
        }
      ],
      "stateMutability": "view",
      "type": "function"
    },
    {
      "inputs": [
        {
          "internalType": "address",
          "name": "creator",
          "type": "address"
        }
      ],
      "name": "cancelSubscribe",
      "outputs": [],
      "stateMutability": "nonpayable",
      "type": "function"
    },
    {
      "inputs": [],
      "name": "claimCreatorPayment",
      "outputs": [],
      "stateMutability": "nonpayable",
      "type": "function"
    },
    {
      "inputs": [],
      "name": "currentPeriod",
      "outputs": [
        {
          "internalType": "uint256",
          "name": "",
          "type": "uint256"
        }
      ],
      "stateMutability": "view",
      "type": "function"
    },
    {
      "inputs": [],
      "name": "deposit",
      "outputs": [],
      "stateMutability": "payable",
      "type": "function"
    },
    {
      "inputs": [
        {
          "internalType": "address",
          "name": "user",
          "type": "address"
        }
      ],
      "name": "getBalance",
      "outputs": [
        {
          "internalType": "uint256",
          "name": "",
          "type": "uint256"
        }
      ],
      "stateMutability": "view",
      "type": "function"
    },
    {
      "inputs": [],
      "name": "getCreatorPayment",
      "outputs": [
        {
          "internalType": "uint256",
          "name": "",
          "type": "uint256"
        }
      ],
      "stateMutability": "view",
      "type": "function"
    },
    {
      "inputs": [
        {
          "internalType": "address",
          "name": "creator",
          "type": "address"
        }
      ],
      "name": "getCreatorSubscribers",
      "outputs": [
        {
          "components": [
            {
              "internalType": "address",
              "name": "supporter",
              "type": "address"
            },
            {
              "internalType": "uint256",
              "name": "subscriptionPlanId",
              "type": "uint256"
            },
            {
              "internalType": "uint256",
              "name": "afterLastPeriod",
              "type": "uint256"
            }
          ],
          "internalType": "struct Backer.Subscriber[]",
          "name": "",
          "type": "tuple[]"
        }
      ],
      "stateMutability": "view",
      "type": "function"
    },
    {
      "inputs": [
        {
          "internalType": "address",
          "name": "creator",
          "type": "address"
        }
      ],
      "name": "getCreatorSubscriptionPlans",
      "outputs": [
        {
          "components": [
            {
              "internalType": "uint256",
              "name": "id",
              "type": "uint256"
            },
            {
              "internalType": "string",
              "name": "name",
              "type": "string"
            },
            {
              "internalType": "address",
              "name": "creator",
              "type": "address"
            },
            {
              "internalType": "uint256",
              "name": "amountPerPeriod",
              "type": "uint256"
            }
          ],
          "internalType": "struct Backer.SubscriptionPlan[]",
          "name": "",
          "type": "tuple[]"
        }
      ],
      "stateMutability": "view",
      "type": "function"
    },
    {
      "inputs": [
        {
          "internalType": "address",
          "name": "supporter",
          "type": "address"
        }
      ],
      "name": "getSupporterSubscriptions",
      "outputs": [
        {
          "components": [
            {
              "components": [
                {
                  "internalType": "uint256",
                  "name": "id",
                  "type": "uint256"
                },
                {
                  "internalType": "string",
                  "name": "name",
                  "type": "string"
                },
                {
                  "internalType": "address",
                  "name": "creator",
                  "type": "address"
                },
                {
                  "internalType": "uint256",
                  "name": "amountPerPeriod",
                  "type": "uint256"
                }
              ],
              "internalType": "struct Backer.SubscriptionPlan",
              "name": "subscriptionPlan",
              "type": "tuple"
            },
            {
              "internalType": "uint256",
              "name": "afterLastPeriod",
              "type": "uint256"
            },
            {
              "internalType": "bool",
              "name": "initialized",
              "type": "bool"
            }
          ],
          "internalType": "struct Backer.Subscription[]",
          "name": "",
          "type": "tuple[]"
        }
      ],
      "stateMutability": "view",
      "type": "function"
    },
    {
      "inputs": [
        {
          "internalType": "uint256",
          "name": "amountPerPeriod",
          "type": "uint256"
        },
        {
          "internalType": "string",
          "name": "name",
          "type": "string"
        }
      ],
      "name": "newSubscriptionPlan",
      "outputs": [],
      "stateMutability": "nonpayable",
      "type": "function"
    },
    {
      "inputs": [
        {
          "internalType": "address",
          "name": "creator",
          "type": "address"
        },
        {
          "internalType": "uint256",
          "name": "amount",
          "type": "uint256"
        }
      ],
      "name": "sendTip",
      "outputs": [],
      "stateMutability": "nonpayable",
      "type": "function"
    },
    {
      "inputs": [
        {
          "internalType": "address",
          "name": "creator",
          "type": "address"
        },
        {
          "internalType": "uint256",
          "name": "subscriptionPlanId",
          "type": "uint256"
        },
        {
          "internalType": "uint256",
          "name": "numOfPeriods",
          "type": "uint256"
        }
      ],
      "name": "subscribe",
      "outputs": [],
      "stateMutability": "nonpayable",
      "type": "function"
    },
    {
      "inputs": [
        {
          "internalType": "uint256",
          "name": "amount",
          "type": "uint256"
        }
      ],
      "name": "withdraw",
      "outputs": [],
      "stateMutability": "nonpayable",
      "type": "function"
    }
  ],
  "bytecode": "0x60806040523480156200001157600080fd5b5060405162003a3f38038062003a3f833981810160405281019062000037919062000063565b806002819055504260038190555050620000b3565b6000815190506200005d8162000099565b92915050565b6000602082840312156200007657600080fd5b600062000086848285016200004c565b91505092915050565b6000819050919050565b620000a4816200008f565b8114620000b057600080fd5b50565b61397c80620000c36000396000f3fe6080604052600436106100dd5760003560e01c8063980131331161007f578063d0e30db011610059578063d0e30db0146102aa578063e11d48b1146102b4578063efac60a3146102dd578063f8b2cb4f1461031a576100dd565b8063980131331461023f5780639c8285b914610268578063c5b981fa1461027f576100dd565b80632e1a7d4d116100bb5780632e1a7d4d14610173578063600890e01461019c578063799e50e9146101d957806384bcbebc14610216576100dd565b806306040618146100e257806322d4a1751461010d57806328eaf27314610136575b600080fd5b3480156100ee57600080fd5b506100f7610357565b6040516101049190613304565b60405180910390f35b34801561011957600080fd5b50610134600480360381019061012f9190612c6d565b610379565b005b34801561014257600080fd5b5061015d60048036038101906101589190612c08565b6111ba565b60405161016a91906131e7565b60405180910390f35b34801561017f57600080fd5b5061019a60048036038101906101959190612cbc565b61138d565b005b3480156101a857600080fd5b506101c360048036038101906101be9190612d39565b6115ee565b6040516101d09190613209565b60405180910390f35b3480156101e557600080fd5b5061020060048036038101906101fb9190612c08565b611646565b60405161020d91906131a3565b60405180910390f35b34801561022257600080fd5b5061023d60048036038101906102389190612c31565b61174e565b005b34801561024b57600080fd5b5061026660048036038101906102619190612ce5565b611880565b005b34801561027457600080fd5b5061027d6119be565b005b34801561028b57600080fd5b50610294611a6e565b6040516102a19190613304565b60405180910390f35b6102b2611b42565b005b3480156102c057600080fd5b506102db60048036038101906102d69190612c08565b611bf1565b005b3480156102e957600080fd5b5061030460048036038101906102ff9190612c08565b6127e5565b60405161031191906131c5565b60405180910390f35b34801561032657600080fd5b50610341600480360381019061033c9190612c08565b61297f565b60405161034e9190613304565b60405180910390f35b60006002546003544261036a9190613599565b610374919061350e565b905090565b6103816129c8565b600080600090505b600460008773ffffffffffffffffffffffffffffffffffffffff1673ffffffffffffffffffffffffffffffffffffffff1681526020019081526020016000208054905081101561060d5784600460008873ffffffffffffffffffffffffffffffffffffffff1673ffffffffffffffffffffffffffffffffffffffff168152602001908152602001600020828154811061044b577f4e487b7100000000000000000000000000000000000000000000000000000000600052603260045260246000fd5b90600052602060002090600402016000015414156105fa57600460008773ffffffffffffffffffffffffffffffffffffffff1673ffffffffffffffffffffffffffffffffffffffff16815260200190815260200160002081815481106104da577f4e487b7100000000000000000000000000000000000000000000000000000000600052603260045260246000fd5b90600052602060002090600402016040518060800160405290816000820154815260200160018201805461050d90613657565b80601f016020809104026020016040519081016040528092919081815260200182805461053990613657565b80156105865780601f1061055b57610100808354040283529160200191610586565b820191906000526020600020905b81548152906001019060200180831161056957829003601f168201915b505050505081526020016002820160009054906101000a900473ffffffffffffffffffffffffffffffffffffffff1673ffffffffffffffffffffffffffffffffffffffff1673ffffffffffffffffffffffffffffffffffffffff16815260200160038201548152505092506001915061060d565b8080610605906136ba565b915050610389565b8161064d576040517f08c379a000000000000000000000000000000000000000000000000000000000815260040161064490613244565b60405180910390fd5b61065b8360600151856115ee565b61069a576040517f08c379a0000000000000000000000000000000000000000000000000000000008152600401610691906132e4565b60405180910390fd5b600560003373ffffffffffffffffffffffffffffffffffffffff1673ffffffffffffffffffffffffffffffffffffffff16815260200190815260200160002060008773ffffffffffffffffffffffffffffffffffffffff1673ffffffffffffffffffffffffffffffffffffffff16815260200190815260200160002060050160009054906101000a900460ff1615806107b95750610736610357565b600560003373ffffffffffffffffffffffffffffffffffffffff1673ffffffffffffffffffffffffffffffffffffffff16815260200190815260200160002060008873ffffffffffffffffffffffffffffffffffffffff1673ffffffffffffffffffffffffffffffffffffffff1681526020019081526020016000206004015411155b6107f8576040517f08c379a00000000000000000000000000000000000000000000000000000000081526004016107ef90613284565b60405180910390fd5b6000610802610357565b90505b8461080e610357565b61081891906134b8565b81101561089d578360600151600860008973ffffffffffffffffffffffffffffffffffffffff1673ffffffffffffffffffffffffffffffffffffffff1681526020019081526020016000206000838152602001908152602001600020600082825461088391906134b8565b925050819055508080610895906136ba565b915050610805565b5060006040518060600160405280858152602001866108ba610357565b6108c491906134b8565b815260200160011515815250905080600560003373ffffffffffffffffffffffffffffffffffffffff1673ffffffffffffffffffffffffffffffffffffffff16815260200190815260200160002060008973ffffffffffffffffffffffffffffffffffffffff1673ffffffffffffffffffffffffffffffffffffffff16815260200190815260200160002060008201518160000160008201518160000155602082015181600101908051906020019061097e929190612a06565b5060408201518160020160006101000a81548173ffffffffffffffffffffffffffffffffffffffff021916908373ffffffffffffffffffffffffffffffffffffffff1602179055506060820151816003015550506020820151816004015560408201518160050160006101000a81548160ff0219169083151502179055509050506000600660003373ffffffffffffffffffffffffffffffffffffffff1673ffffffffffffffffffffffffffffffffffffffff168152602001908152602001600020805490509050600092505b80831015610c80578773ffffffffffffffffffffffffffffffffffffffff16600660003373ffffffffffffffffffffffffffffffffffffffff1673ffffffffffffffffffffffffffffffffffffffff1681526020019081526020016000208481548110610ae1577f4e487b7100000000000000000000000000000000000000000000000000000000600052603260045260246000fd5b906000526020600020906006020160000160020160009054906101000a900473ffffffffffffffffffffffffffffffffffffffff1673ffffffffffffffffffffffffffffffffffffffff161415610c6d5781600660003373ffffffffffffffffffffffffffffffffffffffff1673ffffffffffffffffffffffffffffffffffffffff1681526020019081526020016000208481548110610baa577f4e487b7100000000000000000000000000000000000000000000000000000000600052603260045260246000fd5b9060005260206000209060060201600082015181600001600082015181600001556020820151816001019080519060200190610be7929190612a06565b5060408201518160020160006101000a81548173ffffffffffffffffffffffffffffffffffffffff021916908373ffffffffffffffffffffffffffffffffffffffff1602179055506060820151816003015550506020820151816004015560408201518160050160006101000a81548160ff021916908315150217905550905050610c80565b8280610c78906136ba565b935050610a4b565b80831415610da157600660003373ffffffffffffffffffffffffffffffffffffffff1673ffffffffffffffffffffffffffffffffffffffff168152602001908152602001600020829080600181540180825580915050600190039060005260206000209060060201600090919091909150600082015181600001600082015181600001556020820151816001019080519060200190610d20929190612a06565b5060408201518160020160006101000a81548173ffffffffffffffffffffffffffffffffffffffff021916908373ffffffffffffffffffffffffffffffffffffffff1602179055506060820151816003015550506020820151816004015560408201518160050160006101000a81548160ff02191690831515021790555050505b600060405180606001604052803373ffffffffffffffffffffffffffffffffffffffff16815260200187600001518152602001846020015181525090506000600760008b73ffffffffffffffffffffffffffffffffffffffff1673ffffffffffffffffffffffffffffffffffffffff168152602001908152602001600020805490509050600094505b8085101561100a573373ffffffffffffffffffffffffffffffffffffffff16600760008c73ffffffffffffffffffffffffffffffffffffffff1673ffffffffffffffffffffffffffffffffffffffff1681526020019081526020016000208681548110610ec0577f4e487b7100000000000000000000000000000000000000000000000000000000600052603260045260246000fd5b906000526020600020906003020160000160009054906101000a900473ffffffffffffffffffffffffffffffffffffffff1673ffffffffffffffffffffffffffffffffffffffff161415610ff75781600760008c73ffffffffffffffffffffffffffffffffffffffff1673ffffffffffffffffffffffffffffffffffffffff1681526020019081526020016000208681548110610f86577f4e487b7100000000000000000000000000000000000000000000000000000000600052603260045260246000fd5b906000526020600020906003020160008201518160000160006101000a81548173ffffffffffffffffffffffffffffffffffffffff021916908373ffffffffffffffffffffffffffffffffffffffff160217905550602082015181600101556040820151816002015590505061100a565b8480611002906136ba565b955050610e2a565b808514156110d957600760008b73ffffffffffffffffffffffffffffffffffffffff1673ffffffffffffffffffffffffffffffffffffffff16815260200190815260200160002082908060018154018082558091505060019003906000526020600020906003020160009091909190915060008201518160000160006101000a81548173ffffffffffffffffffffffffffffffffffffffff021916908373ffffffffffffffffffffffffffffffffffffffff160217905550602082015181600101556040820151816002015550505b8787606001516110e9919061353f565b600a60003373ffffffffffffffffffffffffffffffffffffffff1673ffffffffffffffffffffffffffffffffffffffff16815260200190815260200160002060008282546111379190613599565b925050819055508973ffffffffffffffffffffffffffffffffffffffff163373ffffffffffffffffffffffffffffffffffffffff167f034f7638a4bf87941eab61937397b06c1308e493214ac51a8c34fb601b625f39611195610357565b8c8c6040516111a693929190613348565b60405180910390a350505050505050505050565b6060600660008373ffffffffffffffffffffffffffffffffffffffff1673ffffffffffffffffffffffffffffffffffffffff168152602001908152602001600020805480602002602001604051908101604052809291908181526020016000905b828210156113825783829060005260206000209060060201604051806060016040529081600082016040518060800160405290816000820154815260200160018201805461126890613657565b80601f016020809104026020016040519081016040528092919081815260200182805461129490613657565b80156112e15780601f106112b6576101008083540402835291602001916112e1565b820191906000526020600020905b8154815290600101906020018083116112c457829003601f168201915b505050505081526020016002820160009054906101000a900473ffffffffffffffffffffffffffffffffffffffff1673ffffffffffffffffffffffffffffffffffffffff1673ffffffffffffffffffffffffffffffffffffffff1681526020016003820154815250508152602001600482015481526020016005820160009054906101000a900460ff1615151515815250508152602001906001019061121b565b505050509050919050565b60008054906101000a900460ff16156113db576040517f08c379a00000000000000000000000000000000000000000000000000000000081526004016113d2906132a4565b60405180910390fd5b60016000806101000a81548160ff02191690831515021790555080600a60003373ffffffffffffffffffffffffffffffffffffffff1673ffffffffffffffffffffffffffffffffffffffff168152602001908152602001600020541015611477576040517f08c379a000000000000000000000000000000000000000000000000000000000815260040161146e906132c4565b60405180910390fd5b60003373ffffffffffffffffffffffffffffffffffffffff168260405161149d9061318e565b60006040518083038185875af1925050503d80600081146114da576040519150601f19603f3d011682016040523d82523d6000602084013e6114df565b606091505b5050905080611523576040517f08c379a000000000000000000000000000000000000000000000000000000000815260040161151a90613264565b60405180910390fd5b81600a60003373ffffffffffffffffffffffffffffffffffffffff1673ffffffffffffffffffffffffffffffffffffffff16815260200190815260200160002060008282546115729190613599565b925050819055503373ffffffffffffffffffffffffffffffffffffffff167f9da6493a92039daf47d1f2d7a782299c5994c6323eb1e972f69c432089ec52bf6115b9610357565b846040516115c892919061331f565b60405180910390a25060008060006101000a81548160ff02191690831515021790555050565b600081836115fc919061353f565b600a60003373ffffffffffffffffffffffffffffffffffffffff1673ffffffffffffffffffffffffffffffffffffffff168152602001908152602001600020541015905092915050565b6060600760008373ffffffffffffffffffffffffffffffffffffffff1673ffffffffffffffffffffffffffffffffffffffff168152602001908152602001600020805480602002602001604051908101604052809291908181526020016000905b8282101561174357838290600052602060002090600302016040518060600160405290816000820160009054906101000a900473ffffffffffffffffffffffffffffffffffffffff1673ffffffffffffffffffffffffffffffffffffffff1673ffffffffffffffffffffffffffffffffffffffff16815260200160018201548152602001600282015481525050815260200190600101906116a7565b505050509050919050565b80600a60003373ffffffffffffffffffffffffffffffffffffffff1673ffffffffffffffffffffffffffffffffffffffff1681526020019081526020016000205410156117d0576040517f08c379a00000000000000000000000000000000000000000000000000000000081526004016117c790613224565b60405180910390fd5b80600a60003373ffffffffffffffffffffffffffffffffffffffff1673ffffffffffffffffffffffffffffffffffffffff168152602001908152602001600020600082825461181f9190613599565b9250508190555080600a60008473ffffffffffffffffffffffffffffffffffffffff1673ffffffffffffffffffffffffffffffffffffffff168152602001908152602001600020600082825461187591906134b8565b925050819055505050565b600180600082825461189291906134b8565b925050819055506000604051806080016040528060015481526020018381526020013373ffffffffffffffffffffffffffffffffffffffff168152602001848152509050600460003373ffffffffffffffffffffffffffffffffffffffff1673ffffffffffffffffffffffffffffffffffffffff168152602001908152602001600020819080600181540180825580915050600190039060005260206000209060040201600090919091909150600082015181600001556020820151816001019080519060200190611965929190612a06565b5060408201518160020160006101000a81548173ffffffffffffffffffffffffffffffffffffffff021916908373ffffffffffffffffffffffffffffffffffffffff160217905550606082015181600301555050505050565b60006119c8611a6e565b90506119d2610357565b600960003373ffffffffffffffffffffffffffffffffffffffff1673ffffffffffffffffffffffffffffffffffffffff1681526020019081526020016000208190555080600a60003373ffffffffffffffffffffffffffffffffffffffff1673ffffffffffffffffffffffffffffffffffffffff1681526020019081526020016000206000828254611a6491906134b8565b9250508190555050565b600080600090506000600960003373ffffffffffffffffffffffffffffffffffffffff1673ffffffffffffffffffffffffffffffffffffffff1681526020019081526020016000205490505b611ac2610357565b811015611b3a57600860003373ffffffffffffffffffffffffffffffffffffffff1673ffffffffffffffffffffffffffffffffffffffff16815260200190815260200160002060008281526020019081526020016000205482611b2591906134b8565b91508080611b32906136ba565b915050611aba565b508091505090565b34600a60003373ffffffffffffffffffffffffffffffffffffffff1673ffffffffffffffffffffffffffffffffffffffff1681526020019081526020016000206000828254611b9191906134b8565b925050819055503373ffffffffffffffffffffffffffffffffffffffff167feaa18152488ce5959073c9c79c88ca90b3d96c00de1f118cfaad664c3dab06b9611bd8610357565b34604051611be792919061331f565b60405180910390a2565b6000600560003373ffffffffffffffffffffffffffffffffffffffff1673ffffffffffffffffffffffffffffffffffffffff16815260200190815260200160002060008373ffffffffffffffffffffffffffffffffffffffff1673ffffffffffffffffffffffffffffffffffffffff1681526020019081526020016000206040518060600160405290816000820160405180608001604052908160008201548152602001600182018054611ca490613657565b80601f0160208091040260200160405190810160405280929190818152602001828054611cd090613657565b8015611d1d5780601f10611cf257610100808354040283529160200191611d1d565b820191906000526020600020905b815481529060010190602001808311611d0057829003601f168201915b505050505081526020016002820160009054906101000a900473ffffffffffffffffffffffffffffffffffffffff1673ffffffffffffffffffffffffffffffffffffffff1673ffffffffffffffffffffffffffffffffffffffff1681526020016003820154815250508152602001600482015481526020016005820160009054906101000a900460ff16151515158152505090508060400151611dbf57600080fd5b6001611dc9610357565b8260200151611dd89190613599565b611de29190613599565b816000015160600151611df5919061353f565b600a60003373ffffffffffffffffffffffffffffffffffffffff1673ffffffffffffffffffffffffffffffffffffffff1681526020019081526020016000206000828254611e4391906134b8565b9250508190555060006001611e56610357565b611e6091906134b8565b90505b8160200151811015611ef157816000015160600151600860008573ffffffffffffffffffffffffffffffffffffffff1673ffffffffffffffffffffffffffffffffffffffff16815260200190815260200160002060008381526020019081526020016000206000828254611ed79190613599565b925050819055508080611ee9906136ba565b915050611e63565b506000600660003373ffffffffffffffffffffffffffffffffffffffff1673ffffffffffffffffffffffffffffffffffffffff16815260200190815260200160002080549050905060005b818110156122e457826000015160000151600660003373ffffffffffffffffffffffffffffffffffffffff1673ffffffffffffffffffffffffffffffffffffffff1681526020019081526020016000208281548110611fc4577f4e487b7100000000000000000000000000000000000000000000000000000000600052603260045260246000fd5b90600052602060002090600602016000016000015414156122d157600660003373ffffffffffffffffffffffffffffffffffffffff1673ffffffffffffffffffffffffffffffffffffffff16815260200190815260200160002060018361202b9190613599565b81548110612062577f4e487b7100000000000000000000000000000000000000000000000000000000600052603260045260246000fd5b9060005260206000209060060201600660003373ffffffffffffffffffffffffffffffffffffffff1673ffffffffffffffffffffffffffffffffffffffff16815260200190815260200160002082815481106120e7577f4e487b7100000000000000000000000000000000000000000000000000000000600052603260045260246000fd5b9060005260206000209060060201600082018160000160008201548160000155600182018160010190805461211b90613657565b612126929190612a8c565b506002820160009054906101000a900473ffffffffffffffffffffffffffffffffffffffff168160020160006101000a81548173ffffffffffffffffffffffffffffffffffffffff021916908373ffffffffffffffffffffffffffffffffffffffff160217905550600382015481600301555050600482015481600401556005820160009054906101000a900460ff168160050160006101000a81548160ff021916908315150217905550905050600660003373ffffffffffffffffffffffffffffffffffffffff1673ffffffffffffffffffffffffffffffffffffffff168152602001908152602001600020805480612249577f4e487b7100000000000000000000000000000000000000000000000000000000600052603160045260246000fd5b6001900381819060005260206000209060060201600080820160008082016000905560018201600061227b9190612b19565b6002820160006101000a81549073ffffffffffffffffffffffffffffffffffffffff02191690556003820160009055505060048201600090556005820160006101000a81549060ff0219169055505090556122e4565b80806122dc906136ba565b915050611f3c565b506000600760008573ffffffffffffffffffffffffffffffffffffffff1673ffffffffffffffffffffffffffffffffffffffff16815260200190815260200160002080549050905060005b81811015612684573373ffffffffffffffffffffffffffffffffffffffff16600760008773ffffffffffffffffffffffffffffffffffffffff1673ffffffffffffffffffffffffffffffffffffffff16815260200190815260200160002082815481106123c5577f4e487b7100000000000000000000000000000000000000000000000000000000600052603260045260246000fd5b906000526020600020906003020160000160009054906101000a900473ffffffffffffffffffffffffffffffffffffffff1673ffffffffffffffffffffffffffffffffffffffff16141561267157600760008673ffffffffffffffffffffffffffffffffffffffff1673ffffffffffffffffffffffffffffffffffffffff16815260200190815260200160002060018361245f9190613599565b81548110612496577f4e487b7100000000000000000000000000000000000000000000000000000000600052603260045260246000fd5b9060005260206000209060030201600760008773ffffffffffffffffffffffffffffffffffffffff1673ffffffffffffffffffffffffffffffffffffffff168152602001908152602001600020828154811061251b577f4e487b7100000000000000000000000000000000000000000000000000000000600052603260045260246000fd5b90600052602060002090600302016000820160009054906101000a900473ffffffffffffffffffffffffffffffffffffffff168160000160006101000a81548173ffffffffffffffffffffffffffffffffffffffff021916908373ffffffffffffffffffffffffffffffffffffffff1602179055506001820154816001015560028201548160020155905050600760008673ffffffffffffffffffffffffffffffffffffffff1673ffffffffffffffffffffffffffffffffffffffff16815260200190815260200160002080548061261c577f4e487b7100000000000000000000000000000000000000000000000000000000600052603160045260246000fd5b6001900381819060005260206000209060030201600080820160006101000a81549073ffffffffffffffffffffffffffffffffffffffff02191690556001820160009055600282016000905550509055612684565b808061267c906136ba565b91505061232f565b50600560003373ffffffffffffffffffffffffffffffffffffffff1673ffffffffffffffffffffffffffffffffffffffff16815260200190815260200160002060008573ffffffffffffffffffffffffffffffffffffffff1673ffffffffffffffffffffffffffffffffffffffff168152602001908152602001600020600080820160008082016000905560018201600061271f9190612b19565b6002820160006101000a81549073ffffffffffffffffffffffffffffffffffffffff02191690556003820160009055505060048201600090556005820160006101000a81549060ff021916905550508373ffffffffffffffffffffffffffffffffffffffff163373ffffffffffffffffffffffffffffffffffffffff167f58daab947c81d281f81bd88ec10a9f45fde59788c098989597fa09627543d31a6002548660000151600001516040516127d792919061331f565b60405180910390a350505050565b6060600460008373ffffffffffffffffffffffffffffffffffffffff1673ffffffffffffffffffffffffffffffffffffffff168152602001908152602001600020805480602002602001604051908101604052809291908181526020016000905b8282101561297457838290600052602060002090600402016040518060800160405290816000820154815260200160018201805461288390613657565b80601f01602080910402602001604051908101604052809291908181526020018280546128af90613657565b80156128fc5780601f106128d1576101008083540402835291602001916128fc565b820191906000526020600020905b8154815290600101906020018083116128df57829003601f168201915b505050505081526020016002820160009054906101000a900473ffffffffffffffffffffffffffffffffffffffff1673ffffffffffffffffffffffffffffffffffffffff1673ffffffffffffffffffffffffffffffffffffffff16815260200160038201548152505081526020019060010190612846565b505050509050919050565b6000600a60008373ffffffffffffffffffffffffffffffffffffffff1673ffffffffffffffffffffffffffffffffffffffff168152602001908152602001600020549050919050565b60405180608001604052806000815260200160608152602001600073ffffffffffffffffffffffffffffffffffffffff168152602001600081525090565b828054612a1290613657565b90600052602060002090601f016020900481019282612a345760008555612a7b565b82601f10612a4d57805160ff1916838001178555612a7b565b82800160010185558215612a7b579182015b82811115612a7a578251825591602001919060010190612a5f565b5b509050612a889190612b59565b5090565b828054612a9890613657565b90600052602060002090601f016020900481019282612aba5760008555612b08565b82601f10612acb5780548555612b08565b82800160010185558215612b0857600052602060002091601f016020900482015b82811115612b07578254825591600101919060010190612aec565b5b509050612b159190612b59565b5090565b508054612b2590613657565b6000825580601f10612b375750612b56565b601f016020900490600052602060002090810190612b559190612b59565b5b50565b5b80821115612b72576000816000905550600101612b5a565b5090565b6000612b89612b84846133a4565b61337f565b905082815260208101848484011115612ba157600080fd5b612bac848285613615565b509392505050565b600081359050612bc381613918565b92915050565b600082601f830112612bda57600080fd5b8135612bea848260208601612b76565b91505092915050565b600081359050612c028161392f565b92915050565b600060208284031215612c1a57600080fd5b6000612c2884828501612bb4565b91505092915050565b60008060408385031215612c4457600080fd5b6000612c5285828601612bb4565b9250506020612c6385828601612bf3565b9150509250929050565b600080600060608486031215612c8257600080fd5b6000612c9086828701612bb4565b9350506020612ca186828701612bf3565b9250506040612cb286828701612bf3565b9150509250925092565b600060208284031215612cce57600080fd5b6000612cdc84828501612bf3565b91505092915050565b60008060408385031215612cf857600080fd5b6000612d0685828601612bf3565b925050602083013567ffffffffffffffff811115612d2357600080fd5b612d2f85828601612bc9565b9150509250929050565b60008060408385031215612d4c57600080fd5b6000612d5a85828601612bf3565b9250506020612d6b85828601612bf3565b9150509250929050565b6000612d81838361307b565b60608301905092915050565b6000612d9983836130bd565b905092915050565b6000612dad8383613120565b905092915050565b612dbe816135cd565b82525050565b6000612dcf82613405565b612dd98185613458565b9350612de4836133d5565b8060005b83811015612e15578151612dfc8882612d75565b9750612e0783613431565b925050600181019050612de8565b5085935050505092915050565b6000612e2d82613410565b612e378185613469565b935083602082028501612e49856133e5565b8060005b85811015612e855784840389528151612e668582612d8d565b9450612e718361343e565b925060208a01995050600181019050612e4d565b50829750879550505050505092915050565b6000612ea28261341b565b612eac818561347a565b935083602082028501612ebe856133f5565b8060005b85811015612efa5784840389528151612edb8582612da1565b9450612ee68361344b565b925060208a01995050600181019050612ec2565b50829750879550505050505092915050565b612f15816135df565b82525050565b612f24816135df565b82525050565b6000612f3582613426565b612f3f8185613496565b9350612f4f818560208601613624565b612f58816137bf565b840191505092915050565b6000612f70600f836134a7565b9150612f7b826137d0565b602082019050919050565b6000612f93602d836134a7565b9150612f9e826137f9565b604082019050919050565b6000612fb66015836134a7565b9150612fc182613848565b602082019050919050565b6000612fd96013836134a7565b9150612fe482613871565b602082019050919050565b6000612ffc600e836134a7565b91506130078261389a565b602082019050919050565b600061301f60008361348b565b915061302a826138c3565b600082019050919050565b6000613042601b836134a7565b915061304d826138c6565b602082019050919050565b6000613065601c836134a7565b9150613070826138ef565b602082019050919050565b6060820160008201516130916000850182612db5565b5060208201516130a46020850182613170565b5060408201516130b76040850182613170565b50505050565b60006080830160008301516130d56000860182613170565b50602083015184820360208601526130ed8282612f2a565b91505060408301516131026040860182612db5565b5060608301516131156060860182613170565b508091505092915050565b6000606083016000830151848203600086015261313d82826130bd565b91505060208301516131526020860182613170565b5060408301516131656040860182612f0c565b508091505092915050565b6131798161360b565b82525050565b6131888161360b565b82525050565b600061319982613012565b9150819050919050565b600060208201905081810360008301526131bd8184612dc4565b905092915050565b600060208201905081810360008301526131df8184612e22565b905092915050565b600060208201905081810360008301526132018184612e97565b905092915050565b600060208201905061321e6000830184612f1b565b92915050565b6000602082019050818103600083015261323d81612f63565b9050919050565b6000602082019050818103600083015261325d81612f86565b9050919050565b6000602082019050818103600083015261327d81612fa9565b9050919050565b6000602082019050818103600083015261329d81612fcc565b9050919050565b600060208201905081810360008301526132bd81612fef565b9050919050565b600060208201905081810360008301526132dd81613035565b9050919050565b600060208201905081810360008301526132fd81613058565b9050919050565b6000602082019050613319600083018461317f565b92915050565b6000604082019050613334600083018561317f565b613341602083018461317f565b9392505050565b600060608201905061335d600083018661317f565b61336a602083018561317f565b613377604083018461317f565b949350505050565b600061338961339a565b90506133958282613689565b919050565b6000604051905090565b600067ffffffffffffffff8211156133bf576133be613790565b5b6133c8826137bf565b9050602081019050919050565b6000819050602082019050919050565b6000819050602082019050919050565b6000819050602082019050919050565b600081519050919050565b600081519050919050565b600081519050919050565b600081519050919050565b6000602082019050919050565b6000602082019050919050565b6000602082019050919050565b600082825260208201905092915050565b600082825260208201905092915050565b600082825260208201905092915050565b600081905092915050565b600082825260208201905092915050565b600082825260208201905092915050565b60006134c38261360b565b91506134ce8361360b565b9250827fffffffffffffffffffffffffffffffffffffffffffffffffffffffffffffffff0382111561350357613502613703565b5b828201905092915050565b60006135198261360b565b91506135248361360b565b92508261353457613533613732565b5b828204905092915050565b600061354a8261360b565b91506135558361360b565b9250817fffffffffffffffffffffffffffffffffffffffffffffffffffffffffffffffff048311821515161561358e5761358d613703565b5b828202905092915050565b60006135a48261360b565b91506135af8361360b565b9250828210156135c2576135c1613703565b5b828203905092915050565b60006135d8826135eb565b9050919050565b60008115159050919050565b600073ffffffffffffffffffffffffffffffffffffffff82169050919050565b6000819050919050565b82818337600083830152505050565b60005b83811015613642578082015181840152602081019050613627565b83811115613651576000848401525b50505050565b6000600282049050600182168061366f57607f821691505b6020821081141561368357613682613761565b5b50919050565b613692826137bf565b810181811067ffffffffffffffff821117156136b1576136b0613790565b5b80604052505050565b60006136c58261360b565b91507fffffffffffffffffffffffffffffffffffffffffffffffffffffffffffffffff8214156136f8576136f7613703565b5b600182019050919050565b7f4e487b7100000000000000000000000000000000000000000000000000000000600052601160045260246000fd5b7f4e487b7100000000000000000000000000000000000000000000000000000000600052601260045260246000fd5b7f4e487b7100000000000000000000000000000000000000000000000000000000600052602260045260246000fd5b7f4e487b7100000000000000000000000000000000000000000000000000000000600052604160045260246000fd5b6000601f19601f8301169050919050565b7f6e6f7420656e6f7567682066756e640000000000000000000000000000000000600082015250565b7f63726561746f7220686173206e6f20737562736372697074696f6e20706c616e60008201527f2077697468207468697320696400000000000000000000000000000000000000602082015250565b7f6661696c656420746f2073656e6420616d6f756e740000000000000000000000600082015250565b7f616c72656164792068617665206120706c616e00000000000000000000000000600082015250565b7f4e6f2072652d656e7472616e6379000000000000000000000000000000000000600082015250565b50565b7f6e6f7420656e6f7567682066756e6420746f2077697468647261770000000000600082015250565b7f6e6f7420656e6f7567682066756e6420746f2073756273637269626500000000600082015250565b613921816135cd565b811461392c57600080fd5b50565b6139388161360b565b811461394357600080fd5b5056fea2646970667358221220f4e21ed43423c7edf916e775b508aab1d66c37d9df93d91391ced7557e83fcc264736f6c63430008040033",
  "linkReferences": {},
  "deployedLinkReferences": {}
}